{
  "contractName": "EtherlessSmart",
  "abi": [
    {
      "inputs": [],
      "payable": false,
      "stateMutability": "nonpayable",
      "type": "constructor"
    },
    {
      "anonymous": false,
      "inputs": [
        {
          "indexed": false,
          "internalType": "string",
          "name": "result",
          "type": "string"
        },
        {
          "indexed": true,
          "internalType": "uint256",
          "name": "id",
          "type": "uint256"
        }
      ],
      "name": "response",
      "type": "event"
    },
    {
      "anonymous": false,
      "inputs": [
        {
          "indexed": false,
          "internalType": "string",
          "name": "funcname",
          "type": "string"
        },
        {
          "indexed": false,
          "internalType": "string",
          "name": "param",
          "type": "string"
        },
        {
          "indexed": true,
          "internalType": "uint256",
          "name": "id",
          "type": "uint256"
        }
      ],
      "name": "runRequest",
      "type": "event"
    },
    {
      "constant": true,
      "inputs": [],
      "name": "getList",
      "outputs": [
        {
          "internalType": "string[]",
          "name": "",
          "type": "string[]"
        }
      ],
      "payable": false,
      "stateMutability": "view",
      "type": "function"
    },
    {
      "constant": true,
      "inputs": [
        {
          "internalType": "string",
          "name": "name",
          "type": "string"
        }
      ],
      "name": "existsFunction",
      "outputs": [
        {
          "internalType": "bool",
          "name": "",
          "type": "bool"
        }
      ],
      "payable": false,
      "stateMutability": "view",
      "type": "function"
    },
    {
      "constant": false,
      "inputs": [
        {
          "internalType": "string",
          "name": "name",
          "type": "string"
        },
        {
          "internalType": "uint256",
          "name": "price",
          "type": "uint256"
        }
      ],
      "name": "addFunction",
      "outputs": [],
      "payable": false,
      "stateMutability": "nonpayable",
      "type": "function"
    },
    {
      "constant": false,
      "inputs": [
        {
          "internalType": "string",
          "name": "toRemove",
          "type": "string"
        }
      ],
      "name": "removeFunction",
      "outputs": [],
      "payable": false,
      "stateMutability": "nonpayable",
      "type": "function"
    },
    {
      "constant": false,
      "inputs": [
        {
          "internalType": "string",
          "name": "funcName",
          "type": "string"
        },
        {
          "internalType": "string",
          "name": "param",
          "type": "string"
        }
      ],
      "name": "runFunction",
      "outputs": [
        {
          "internalType": "uint256",
          "name": "",
          "type": "uint256"
        }
      ],
      "payable": true,
      "stateMutability": "payable",
      "type": "function"
    },
    {
      "constant": false,
      "inputs": [
        {
          "internalType": "string",
          "name": "result",
          "type": "string"
        },
        {
          "internalType": "uint256",
          "name": "id",
          "type": "uint256"
        }
      ],
      "name": "resultFunction",
      "outputs": [],
      "payable": false,
      "stateMutability": "nonpayable",
      "type": "function"
    },
    {
      "constant": true,
      "inputs": [],
      "name": "getBalance",
      "outputs": [
        {
          "internalType": "uint256",
          "name": "",
          "type": "uint256"
        }
      ],
      "payable": false,
      "stateMutability": "view",
      "type": "function"
    },
    {
      "constant": true,
      "inputs": [],
      "name": "getData",
      "outputs": [
        {
          "internalType": "string",
          "name": "",
          "type": "string"
        }
      ],
      "payable": false,
      "stateMutability": "view",
      "type": "function"
    },
    {
      "constant": false,
      "inputs": [
        {
          "internalType": "address payable",
          "name": "to",
          "type": "address"
        },
        {
          "internalType": "uint256",
          "name": "amount",
          "type": "uint256"
        }
      ],
      "name": "sendAmount",
      "outputs": [],
      "payable": false,
      "stateMutability": "nonpayable",
      "type": "function"
    }
  ],
  "bytecode": "0x60806040526040518060400160405280600681526020017f68656c6c6f2100000000000000000000000000000000000000000000000000008152506001908051906020019062000051929190620000ab565b5060006002553480156200006457600080fd5b50336000806101000a81548173ffffffffffffffffffffffffffffffffffffffff021916908373ffffffffffffffffffffffffffffffffffffffff1602179055506200015a565b828054600181600116156101000203166002900490600052602060002090601f016020900481019282601f10620000ee57805160ff19168380011785556200011f565b828001600101855582156200011f579182015b828111156200011e57825182559160200191906001019062000101565b5b5090506200012e919062000132565b5090565b6200015791905b808211156200015357600081600090555060010162000139565b5090565b90565b611339806200016a6000396000f3fe6080604052600436106100865760003560e01c80635d461de5116100595780635d461de51461013a57806384ecd68514610163578063942b765a146101a0578063c3e0d45f146101cb578063f058f47c146101f457610086565b8063086751f71461008b57806312065fe0146100bb5780633bc5de30146100e657806351a2667314610111575b600080fd5b6100a560048036036100a09190810190610c60565b61021d565b6040516100b29190611128565b60405180910390f35b3480156100c757600080fd5b506100d0610399565b6040516100dd9190611128565b60405180910390f35b3480156100f257600080fd5b506100fb6103a3565b604051610108919061106f565b60405180910390f35b34801561011d57600080fd5b5061013860048036036101339190810190610ccc565b610445565b005b34801561014657600080fd5b50610161600480360361015c9190810190610be3565b610512565b005b34801561016f57600080fd5b5061018a60048036036101859190810190610c1f565b61056d565b6040516101979190611054565b60405180910390f35b3480156101ac57600080fd5b506101b56105b6565b6040516101c29190611032565b60405180910390f35b3480156101d757600080fd5b506101f260048036036101ed9190810190610c1f565b61069f565b005b34801561020057600080fd5b5061021b60048036036102169190810190610ccc565b610827565b005b60006102288361056d565b610267576040517f08c379a000000000000000000000000000000000000000000000000000000000815260040161025e90611108565b60405180910390fd5b826001908051906020019061027d929190610971565b5060006004846040516102909190611004565b908152602001604051809103902060010154905060006004856040516102b69190611004565b908152602001604051809103902060020160009054906101000a900473ffffffffffffffffffffffffffffffffffffffff1690508134101561032d576040517f08c379a0000000000000000000000000000000000000000000000000000000008152600401610324906110c8565b60405180910390fd5b346002600082825401925050819055506103478183610512565b61034f610959565b506003547f7ef872871460aa4a20c88ad733e51a4ef38ab384f289ec5953b389964b05ac678686604051610384929190611091565b60405180910390a26003549250505092915050565b6000600254905090565b606060018054600181600116156101000203166002900480601f01602080910402602001604051908101604052809291908181526020018280546001816001161561010002031660029004801561043b5780601f106104105761010080835404028352916020019161043b565b820191906000526020600020905b81548152906001019060200180831161041e57829003601f168201915b5050505050905090565b336000809054906101000a900473ffffffffffffffffffffffffffffffffffffffff1673ffffffffffffffffffffffffffffffffffffffff168173ffffffffffffffffffffffffffffffffffffffff16146104d5576040517f08c379a00000000000000000000000000000000000000000000000000000000081526004016104cc906110e8565b60405180910390fd5b817fffda55e4304ec6259e8497cd0ba9fa89ccde91cf30fa16cdb7b79a22b92537a884604051610505919061106f565b60405180910390a2505050565b806002600082825403925050819055508173ffffffffffffffffffffffffffffffffffffffff166108fc829081150290604051600060405180830381858888f19350505050158015610568573d6000803e3d6000fd5b505050565b600060048260405161057f9190611004565b908152602001604051809103902060020160149054906101000a900460ff16156105ac57600190506105b1565b600090505b919050565b60606005805480602002602001604051908101604052809291908181526020016000905b82821015610696578382906000526020600020018054600181600116156101000203166002900480601f0160208091040260200160405190810160405280929190818152602001828054600181600116156101000203166002900480156106825780601f1061065757610100808354040283529160200191610682565b820191906000526020600020905b81548152906001019060200180831161066557829003601f168201915b5050505050815260200190600101906105da565b50505050905090565b6004816040516106af9190611004565b9081526020016040518091039020600080820160006106ce91906109f1565b60018201600090556002820160006101000a81549073ffffffffffffffffffffffffffffffffffffffff02191690556002820160146101000a81549060ff0219169055505060008090505b60058054905081101561082357816040516020016107379190611004565b6040516020818303038152906040528051906020012060001c6005828154811061075d57fe5b90600052602060002001604051602001610777919061101b565b6040516020818303038152906040528051906020012060001c1415610816576005600160058054905003815481106107ab57fe5b90600052602060002001600582815481106107c257fe5b9060005260206000200190805460018160011615610100020316600290046107eb929190610a39565b5060058054806107f757fe5b60019003818190600052602060002001600061081391906109f1565b90555b8080600101915050610719565b5050565b600033905060405180608001604052808481526020018381526020018273ffffffffffffffffffffffffffffffffffffffff168152602001600115158152506004846040516108769190611004565b908152602001604051809103902060008201518160000190805190602001906108a0929190610ac0565b506020820151816001015560408201518160020160006101000a81548173ffffffffffffffffffffffffffffffffffffffff021916908373ffffffffffffffffffffffffffffffffffffffff16021790555060608201518160020160146101000a81548160ff0219169083151502179055509050506005839080600181540180825580915050906001820390600052602060002001600090919290919091509080519060200190610952929190610971565b5050505050565b60006003600081548092919060010191905055905090565b828054600181600116156101000203166002900490600052602060002090601f016020900481019282601f106109b257805160ff19168380011785556109e0565b828001600101855582156109e0579182015b828111156109df5782518255916020019190600101906109c4565b5b5090506109ed9190610b40565b5090565b50805460018160011615610100020316600290046000825580601f10610a175750610a36565b601f016020900490600052602060002090810190610a359190610b40565b5b50565b828054600181600116156101000203166002900490600052602060002090601f016020900481019282601f10610a725780548555610aaf565b82800160010185558215610aaf57600052602060002091601f016020900482015b82811115610aae578254825591600101919060010190610a93565b5b509050610abc9190610b40565b5090565b828054600181600116156101000203166002900490600052602060002090601f016020900481019282601f10610b0157805160ff1916838001178555610b2f565b82800160010185558215610b2f579182015b82811115610b2e578251825591602001919060010190610b13565b5b509050610b3c9190610b40565b5090565b610b6291905b80821115610b5e576000816000905550600101610b46565b5090565b90565b600081359050610b74816112c8565b92915050565b600082601f830112610b8b57600080fd5b8135610b9e610b9982611170565b611143565b91508082526020830160208301858383011115610bba57600080fd5b610bc5838284611275565b50505092915050565b600081359050610bdd816112df565b92915050565b60008060408385031215610bf657600080fd5b6000610c0485828601610b65565b9250506020610c1585828601610bce565b9150509250929050565b600060208284031215610c3157600080fd5b600082013567ffffffffffffffff811115610c4b57600080fd5b610c5784828501610b7a565b91505092915050565b60008060408385031215610c7357600080fd5b600083013567ffffffffffffffff811115610c8d57600080fd5b610c9985828601610b7a565b925050602083013567ffffffffffffffff811115610cb657600080fd5b610cc285828601610b7a565b9150509250929050565b60008060408385031215610cdf57600080fd5b600083013567ffffffffffffffff811115610cf957600080fd5b610d0585828601610b7a565b9250506020610d1685828601610bce565b9150509250929050565b6000610d2c8383610e22565b905092915050565b6000610d3f826111c1565b610d4981856111ef565b935083602082028501610d5b8561119c565b8060005b85811015610d975784840389528151610d788582610d20565b9450610d83836111e2565b925060208a01995050600181019050610d5f565b50829750879550505050505092915050565b610db28161123f565b82525050565b6000610dc3826111d7565b610dcd8185611211565b9350610ddd818560208601611284565b610de6816112b7565b840191505092915050565b6000610dfc826111d7565b610e068185611222565b9350610e16818560208601611284565b80840191505092915050565b6000610e2d826111cc565b610e378185611200565b9350610e47818560208601611284565b610e50816112b7565b840191505092915050565b600081546001811660008114610e785760018114610e9d57610ee1565b607f6002830416610e898187611222565b955060ff1983168652808601935050610ee1565b60028204610eab8187611222565b9550610eb6856111ac565b60005b82811015610ed857815481890152600182019150602081019050610eb9565b82880195505050505b505092915050565b6000610ef6601d83611211565b91507f496e73756666696369656e7420616d6f756e742073656e7421203a27280000006000830152602082019050919050565b6000610f36602683611211565b91507f596f7520617265206e6f7420746865206f776e6572206f662074686520636f6e60008301527f74726163742100000000000000000000000000000000000000000000000000006020830152604082019050919050565b6000610f9c603383611211565b91507f5468652066756e6374696f6e20796f75277265206c6f6f6b696e6720666f722060008301527f646f6573206e6f7420657869737421203a2728000000000000000000000000006020830152604082019050919050565b610ffe8161126b565b82525050565b60006110108284610df1565b915081905092915050565b60006110278284610e5b565b915081905092915050565b6000602082019050818103600083015261104c8184610d34565b905092915050565b60006020820190506110696000830184610da9565b92915050565b600060208201905081810360008301526110898184610db8565b905092915050565b600060408201905081810360008301526110ab8185610db8565b905081810360208301526110bf8184610db8565b90509392505050565b600060208201905081810360008301526110e181610ee9565b9050919050565b6000602082019050818103600083015261110181610f29565b9050919050565b6000602082019050818103600083015261112181610f8f565b9050919050565b600060208201905061113d6000830184610ff5565b92915050565b6000604051905081810181811067ffffffffffffffff8211171561116657600080fd5b8060405250919050565b600067ffffffffffffffff82111561118757600080fd5b601f19601f8301169050602081019050919050565b6000819050602082019050919050565b60008190508160005260206000209050919050565b600081519050919050565b600081519050919050565b600081519050919050565b6000602082019050919050565b600082825260208201905092915050565b600082825260208201905092915050565b600082825260208201905092915050565b600081905092915050565b60006112388261124b565b9050919050565b60008115159050919050565b600073ffffffffffffffffffffffffffffffffffffffff82169050919050565b6000819050919050565b82818337600083830152505050565b60005b838110156112a2578082015181840152602081019050611287565b838111156112b1576000848401525b50505050565b6000601f19601f8301169050919050565b6112d18161122d565b81146112dc57600080fd5b50565b6112e88161126b565b81146112f357600080fd5b5056fea365627a7a72315820537750f02d28d92650faa045c90f1ebb985fb9ef048b6df93b3e62c925b504266c6578706572696d656e74616cf564736f6c63430005100040",
  "source": "pragma solidity >=0.4.22 <0.7.0;\r\npragma experimental ABIEncoderV2;\r\n\r\n//TO DO//\r\n//getFuncInfo -> returns all the info stored in the mapping\r\n//deployFunction -> deployes the user developed function\r\n//deleteFunction -> delete one of the caller's owned functions in AWS\r\n\r\ncontract EtherlessSmart {\r\n  address ownerAddress;\r\n  string data = \"hello!\";\r\n  uint256 balance = 0;\r\n  uint256 requestId; //incremented at every run request\r\n\r\n  struct jsFunction {\r\n    string name;\r\n    //maybe add function signature!\r\n    uint256 price; //decide unit of measurement (probably wei for ease of use and not having 0.0000...00something ether)\r\n    address payable developer;\r\n    bool exists;\r\n  }\r\n\r\n  mapping (string => jsFunction) private availableFunctions; //check if struct in mapping is set to 0 by default\r\n  string[] functionNames;\r\n\r\n  //events\r\n  //event run\r\n  event runRequest(string funcname, string param, uint256 indexed id);\r\n  //event response\r\n  event response(string result, uint256 indexed id);\r\n\r\n  constructor() public {\r\n    ownerAddress = msg.sender;\r\n  }\r\n\r\n  modifier onlyOwner(address _invokedFrom) {\r\n    require(_invokedFrom == ownerAddress, \"You are not the owner of the contract!\");\r\n    _;\r\n  }\r\n\r\n  // functions to check list (availableFunctions)\r\n  //getList -> returns the full list of available functions\r\n  function getList() public view returns (string[] memory) {\r\n    return functionNames;\r\n  }\r\n\r\n  //existsFunction -> check if function is in the availableFunctions list\r\n  function existsFunction(string memory name) public view returns (bool) {\r\n    if(availableFunctions[name].exists) {\r\n        return true;\r\n    } else {\r\n        return false;\r\n    }\r\n  }\r\n\r\n  //addFunction -> add deployed function to list\r\n  function addFunction(string memory name, uint256 price) public {\r\n    address payable developer = msg.sender;\r\n    availableFunctions[name] = jsFunction(name, price, developer, true);\r\n    functionNames.push(name);\r\n  }\r\n\r\n  //removeFunction -> remove function from availableFunctions list\r\n  function removeFunction(string memory toRemove) public {\r\n    delete availableFunctions[toRemove];\r\n    for (uint index = 0; index < functionNames.length; index++) {\r\n        if(uint(keccak256(abi.encodePacked(functionNames[index]))) == uint(keccak256(abi.encodePacked(toRemove)))){\r\n            //delete functionNames[index]; //check if length is correct after deleting an element\r\n            functionNames[index] = functionNames[functionNames.length - 1];\r\n            functionNames.pop();\r\n        }\r\n    }\r\n  }\r\n\r\n// main commands\r\n  //runFunction -> requests execution of the function (call to existsFunction - requests payment - check payment - emit executeFunction event)\r\n  function runFunction(string memory funcName, string memory param) public payable  returns (uint256) {\r\n    require(existsFunction(funcName), \"The function you're looking for does not exist! :'(\");\r\n    data = funcName;\r\n    uint256 funcPrice = availableFunctions[funcName].price;\r\n    address payable funcDev = availableFunctions[funcName].developer;\r\n\r\n    require(msg.value >= funcPrice, \"Insufficient amount sent! :'(\");\r\n    balance += msg.value;\r\n\r\n    sendAmount(funcDev, funcPrice);\r\n\r\n    getNewId();\r\n    emit runRequest(funcName, param, requestId);\r\n    return requestId;\r\n  }\r\n\r\n  function resultFunction(string memory result, uint256 id) public onlyOwner(msg.sender){\r\n    emit response(result, id);\r\n  }\r\n\r\n  function getBalance() public view returns (uint256){\r\n    return balance;\r\n }\r\n\r\n function getData() public view returns(string memory){\r\n   return data;\r\n }\r\n\r\n function sendAmount(address payable to, uint256 amount) public {\r\n   balance -= amount; //remainder from payment\r\n   to.transfer(amount);\r\n }\r\n\r\n function getNewId() private returns (uint256){ //increments requestId\r\n   return requestId++;\r\n }\r\n}\r\n",
  "sourcePath": "C:\\Users\\verof\\OneDrive\\Desktop\\etherless-smart-effect\\contracts\\EtherlessSmart.sol",
  "compiler": {
    "name": "solc",
    "version": "0.5.16+commit.9c3226ce.Emscripten.clang"
  },
  "schemaVersion": "3.1.0",
  "updatedAt": "2020-04-28T19:05:48.935Z",
  "networkType": "ethereum",
  "devdoc": {
    "methods": {}
  },
  "userdoc": {
    "methods": {}
  }
}