{
  "contractName": "EtherlessSmart",
  "abi": [
    {
      "inputs": [],
      "payable": false,
      "stateMutability": "nonpayable",
      "type": "constructor"
    },
    {
      "anonymous": false,
      "inputs": [
        {
          "indexed": false,
          "internalType": "string",
          "name": "result",
          "type": "string"
        },
        {
          "indexed": true,
          "internalType": "uint256",
          "name": "id",
          "type": "uint256"
        }
      ],
      "name": "response",
      "type": "event"
    },
    {
      "anonymous": false,
      "inputs": [
        {
          "indexed": false,
          "internalType": "string",
          "name": "funcname",
          "type": "string"
        },
        {
          "indexed": false,
          "internalType": "string",
          "name": "param",
          "type": "string"
        },
        {
          "indexed": true,
          "internalType": "uint256",
          "name": "id",
          "type": "uint256"
        }
      ],
      "name": "runRequest",
      "type": "event"
    },
    {
      "constant": true,
      "inputs": [
        {
          "internalType": "string",
          "name": "source",
          "type": "string"
        }
      ],
      "name": "stringToBytes",
      "outputs": [
        {
          "internalType": "bytes32",
          "name": "result",
          "type": "bytes32"
        }
      ],
      "payable": false,
      "stateMutability": "pure",
      "type": "function"
    },
    {
      "constant": true,
      "inputs": [
        {
          "internalType": "bytes32",
          "name": "_bytes32",
          "type": "bytes32"
        }
      ],
      "name": "bytes32ToStr",
      "outputs": [
        {
          "internalType": "string",
          "name": "",
          "type": "string"
        }
      ],
      "payable": false,
      "stateMutability": "pure",
      "type": "function"
    },
    {
      "constant": true,
      "inputs": [],
      "name": "getList",
      "outputs": [
        {
          "internalType": "bytes32[]",
          "name": "",
          "type": "bytes32[]"
        }
      ],
      "payable": false,
      "stateMutability": "view",
      "type": "function"
    },
    {
      "constant": true,
      "inputs": [
        {
          "internalType": "string",
          "name": "name",
          "type": "string"
        }
      ],
      "name": "existsFunction",
      "outputs": [
        {
          "internalType": "bool",
          "name": "",
          "type": "bool"
        }
      ],
      "payable": false,
      "stateMutability": "view",
      "type": "function"
    },
    {
      "constant": false,
      "inputs": [
        {
          "internalType": "string",
          "name": "name",
          "type": "string"
        },
        {
          "internalType": "uint256",
          "name": "price",
          "type": "uint256"
        }
      ],
      "name": "addFunction",
      "outputs": [],
      "payable": false,
      "stateMutability": "nonpayable",
      "type": "function"
    },
    {
      "constant": false,
      "inputs": [
        {
          "internalType": "string",
          "name": "toRemove",
          "type": "string"
        }
      ],
      "name": "removeFunction",
      "outputs": [],
      "payable": false,
      "stateMutability": "nonpayable",
      "type": "function"
    },
    {
      "constant": false,
      "inputs": [
        {
          "internalType": "string",
          "name": "funcName",
          "type": "string"
        },
        {
          "internalType": "string",
          "name": "param",
          "type": "string"
        }
      ],
      "name": "runFunction",
      "outputs": [
        {
          "internalType": "uint256",
          "name": "",
          "type": "uint256"
        }
      ],
      "payable": true,
      "stateMutability": "payable",
      "type": "function"
    },
    {
      "constant": false,
      "inputs": [
        {
          "internalType": "string",
          "name": "result",
          "type": "string"
        },
        {
          "internalType": "uint256",
          "name": "id",
          "type": "uint256"
        }
      ],
      "name": "resultFunction",
      "outputs": [],
      "payable": false,
      "stateMutability": "nonpayable",
      "type": "function"
    },
    {
      "constant": true,
      "inputs": [],
      "name": "getBalance",
      "outputs": [
        {
          "internalType": "uint256",
          "name": "",
          "type": "uint256"
        }
      ],
      "payable": false,
      "stateMutability": "view",
      "type": "function"
    },
    {
      "constant": true,
      "inputs": [],
      "name": "getData",
      "outputs": [
        {
          "internalType": "string",
          "name": "",
          "type": "string"
        }
      ],
      "payable": false,
      "stateMutability": "view",
      "type": "function"
    },
    {
      "constant": false,
      "inputs": [
        {
          "internalType": "address payable",
          "name": "to",
          "type": "address"
        },
        {
          "internalType": "uint256",
          "name": "amount",
          "type": "uint256"
        }
      ],
      "name": "sendAmount",
      "outputs": [],
      "payable": false,
      "stateMutability": "nonpayable",
      "type": "function"
    }
  ],
  "bytecode": "0x60806040526040518060400160405280600681526020017f68656c6c6f2100000000000000000000000000000000000000000000000000008152506001908051906020019062000051929190620000ab565b5060006002553480156200006457600080fd5b50336000806101000a81548173ffffffffffffffffffffffffffffffffffffffff021916908373ffffffffffffffffffffffffffffffffffffffff1602179055506200015a565b828054600181600116156101000203166002900490600052602060002090601f016020900481019282601f10620000ee57805160ff19168380011785556200011f565b828001600101855582156200011f579182015b828111156200011e57825182559160200191906001019062000101565b5b5090506200012e919062000132565b5090565b6200015791905b808211156200015357600081600090555060010162000139565b5090565b90565b6112d5806200016a6000396000f3fe60806040526004361061009c5760003560e01c806384ecd6851161006457806384ecd68514610179578063942b765a146101b6578063c3e0d45f146101e1578063e106fb4b1461020a578063ef0b236814610247578063f058f47c146102845761009c565b8063086751f7146100a157806312065fe0146100d15780633bc5de30146100fc57806351a26673146101275780635d461de514610150575b600080fd5b6100bb60048036036100b69190810190610cc4565b6102ad565b6040516100c891906110d4565b60405180910390f35b3480156100dd57600080fd5b506100e6610429565b6040516100f391906110d4565b60405180910390f35b34801561010857600080fd5b50610111610433565b60405161011e919061101b565b60405180910390f35b34801561013357600080fd5b5061014e60048036036101499190810190610d30565b6104d5565b005b34801561015c57600080fd5b5061017760048036036101729190810190610c1e565b6105a2565b005b34801561018557600080fd5b506101a0600480360361019b9190810190610c83565b6105fd565b6040516101ad9190610fe5565b60405180910390f35b3480156101c257600080fd5b506101cb610646565b6040516101d89190610fc3565b60405180910390f35b3480156101ed57600080fd5b5061020860048036036102039190810190610c83565b61069e565b005b34801561021657600080fd5b50610231600480360361022c9190810190610c83565b61080c565b60405161023e9190611000565b60405180910390f35b34801561025357600080fd5b5061026e60048036036102699190810190610c5a565b610837565b60405161027b919061101b565b60405180910390f35b34801561029057600080fd5b506102ab60048036036102a69190810190610d30565b6108df565b005b60006102b8836105fd565b6102f7576040517f08c379a00000000000000000000000000000000000000000000000000000000081526004016102ee906110b4565b60405180910390fd5b826001908051906020019061030d929190610a1e565b5060006004846040516103209190610fac565b908152602001604051809103902060010154905060006004856040516103469190610fac565b908152602001604051809103902060020160009054906101000a900473ffffffffffffffffffffffffffffffffffffffff169050813410156103bd576040517f08c379a00000000000000000000000000000000000000000000000000000000081526004016103b490611074565b60405180910390fd5b346002600082825401925050819055506103d781836105a2565b6103df610a06565b506003547f7ef872871460aa4a20c88ad733e51a4ef38ab384f289ec5953b389964b05ac67868660405161041492919061103d565b60405180910390a26003549250505092915050565b6000600254905090565b606060018054600181600116156101000203166002900480601f0160208091040260200160405190810160405280929190818152602001828054600181600116156101000203166002900480156104cb5780601f106104a0576101008083540402835291602001916104cb565b820191906000526020600020905b8154815290600101906020018083116104ae57829003601f168201915b5050505050905090565b336000809054906101000a900473ffffffffffffffffffffffffffffffffffffffff1673ffffffffffffffffffffffffffffffffffffffff168173ffffffffffffffffffffffffffffffffffffffff1614610565576040517f08c379a000000000000000000000000000000000000000000000000000000000815260040161055c90611094565b60405180910390fd5b817fffda55e4304ec6259e8497cd0ba9fa89ccde91cf30fa16cdb7b79a22b92537a884604051610595919061101b565b60405180910390a2505050565b806002600082825403925050819055508173ffffffffffffffffffffffffffffffffffffffff166108fc829081150290604051600060405180830381858888f193505050501580156105f8573d6000803e3d6000fd5b505050565b600060048260405161060f9190610fac565b908152602001604051809103902060020160149054906101000a900460ff161561063c5760019050610641565b600090505b919050565b6060600580548060200260200160405190810160405280929190818152602001828054801561069457602002820191906000526020600020905b815481526020019060010190808311610680575b5050505050905090565b6004816040516106ae9190610fac565b9081526020016040518091039020600080820160006106cd9190610a9e565b60018201600090556002820160006101000a81549073ffffffffffffffffffffffffffffffffffffffff02191690556002820160146101000a81549060ff0219169055505060008090505b60058054905081101561080857816040516020016107369190610fac565b6040516020818303038152906040528051906020012060001c61076f6005838154811061075f57fe5b9060005260206000200154610837565b60405160200161077f9190610fac565b6040516020818303038152906040528051906020012060001c14156107fb576005600160058054905003815481106107b357fe5b9060005260206000200154600582815481106107cb57fe5b906000526020600020018190555060058054806107e457fe5b600190038181906000526020600020016000905590555b8080600101915050610718565b5050565b60006060829050600081511415610829576000801b915050610832565b60208301519150505b919050565b60608060206040519080825280601f01601f19166020018201604052801561086e5781602001600182028038833980820191505090505b50905060005b60208110156108d55783816020811061088957fe5b1a60f81b82828151811061089957fe5b60200101907effffffffffffffffffffffffffffffffffffffffffffffffffffffffffffff1916908160001a9053508080600101915050610874565b5080915050919050565b600033905060405180608001604052808481526020018381526020018273ffffffffffffffffffffffffffffffffffffffff1681526020016001151581525060048460405161092e9190610fac565b90815260200160405180910390206000820151816000019080519060200190610958929190610ae6565b506020820151816001015560408201518160020160006101000a81548173ffffffffffffffffffffffffffffffffffffffff021916908373ffffffffffffffffffffffffffffffffffffffff16021790555060608201518160020160146101000a81548160ff02191690831515021790555090505060056109d88461080c565b9080600181540180825580915050906001820390600052602060002001600090919290919091505550505050565b60006003600081548092919060010191905055905090565b828054600181600116156101000203166002900490600052602060002090601f016020900481019282601f10610a5f57805160ff1916838001178555610a8d565b82800160010185558215610a8d579182015b82811115610a8c578251825591602001919060010190610a71565b5b509050610a9a9190610b66565b5090565b50805460018160011615610100020316600290046000825580601f10610ac45750610ae3565b601f016020900490600052602060002090810190610ae29190610b66565b5b50565b828054600181600116156101000203166002900490600052602060002090601f016020900481019282601f10610b2757805160ff1916838001178555610b55565b82800160010185558215610b55579182015b82811115610b54578251825591602001919060010190610b39565b5b509050610b629190610b66565b5090565b610b8891905b80821115610b84576000816000905550600101610b6c565b5090565b90565b600081359050610b9a8161124d565b92915050565b600081359050610baf81611264565b92915050565b600082601f830112610bc657600080fd5b8135610bd9610bd48261111c565b6110ef565b91508082526020830160208301858383011115610bf557600080fd5b610c008382846111fa565b50505092915050565b600081359050610c188161127b565b92915050565b60008060408385031215610c3157600080fd5b6000610c3f85828601610b8b565b9250506020610c5085828601610c09565b9150509250929050565b600060208284031215610c6c57600080fd5b6000610c7a84828501610ba0565b91505092915050565b600060208284031215610c9557600080fd5b600082013567ffffffffffffffff811115610caf57600080fd5b610cbb84828501610bb5565b91505092915050565b60008060408385031215610cd757600080fd5b600083013567ffffffffffffffff811115610cf157600080fd5b610cfd85828601610bb5565b925050602083013567ffffffffffffffff811115610d1a57600080fd5b610d2685828601610bb5565b9150509250929050565b60008060408385031215610d4357600080fd5b600083013567ffffffffffffffff811115610d5d57600080fd5b610d6985828601610bb5565b9250506020610d7a85828601610c09565b9150509250929050565b6000610d908383610e09565b60208301905092915050565b6000610da782611158565b610db1818561117b565b9350610dbc83611148565b8060005b83811015610ded578151610dd48882610d84565b9750610ddf8361116e565b925050600181019050610dc0565b5085935050505092915050565b610e03816111ba565b82525050565b610e12816111c6565b82525050565b610e21816111c6565b82525050565b6000610e3282611163565b610e3c818561118c565b9350610e4c818560208601611209565b610e558161123c565b840191505092915050565b6000610e6b82611163565b610e75818561119d565b9350610e85818560208601611209565b80840191505092915050565b6000610e9e601d8361118c565b91507f496e73756666696369656e7420616d6f756e742073656e7421203a27280000006000830152602082019050919050565b6000610ede60268361118c565b91507f596f7520617265206e6f7420746865206f776e6572206f662074686520636f6e60008301527f74726163742100000000000000000000000000000000000000000000000000006020830152604082019050919050565b6000610f4460338361118c565b91507f5468652066756e6374696f6e20796f75277265206c6f6f6b696e6720666f722060008301527f646f6573206e6f7420657869737421203a2728000000000000000000000000006020830152604082019050919050565b610fa6816111f0565b82525050565b6000610fb88284610e60565b915081905092915050565b60006020820190508181036000830152610fdd8184610d9c565b905092915050565b6000602082019050610ffa6000830184610dfa565b92915050565b60006020820190506110156000830184610e18565b92915050565b600060208201905081810360008301526110358184610e27565b905092915050565b600060408201905081810360008301526110578185610e27565b9050818103602083015261106b8184610e27565b90509392505050565b6000602082019050818103600083015261108d81610e91565b9050919050565b600060208201905081810360008301526110ad81610ed1565b9050919050565b600060208201905081810360008301526110cd81610f37565b9050919050565b60006020820190506110e96000830184610f9d565b92915050565b6000604051905081810181811067ffffffffffffffff8211171561111257600080fd5b8060405250919050565b600067ffffffffffffffff82111561113357600080fd5b601f19601f8301169050602081019050919050565b6000819050602082019050919050565b600081519050919050565b600081519050919050565b6000602082019050919050565b600082825260208201905092915050565b600082825260208201905092915050565b600081905092915050565b60006111b3826111d0565b9050919050565b60008115159050919050565b6000819050919050565b600073ffffffffffffffffffffffffffffffffffffffff82169050919050565b6000819050919050565b82818337600083830152505050565b60005b8381101561122757808201518184015260208101905061120c565b83811115611236576000848401525b50505050565b6000601f19601f8301169050919050565b611256816111a8565b811461126157600080fd5b50565b61126d816111c6565b811461127857600080fd5b50565b611284816111f0565b811461128f57600080fd5b5056fea365627a7a723158201d822b934cb4566f3e25814063ab36af5ab780e94388af65fffec0d5b720c6526c6578706572696d656e74616cf564736f6c63430005100040",
  "source": "pragma solidity >=0.4.22 <0.7.0;\r\npragma experimental ABIEncoderV2;\r\n\r\n//TO DO//\r\n//getFuncInfo -> returns all the info stored in the mapping\r\n//deployFunction -> deployes the user developed function\r\n//deleteFunction -> delete one of the caller's owned functions in AWS\r\n\r\ncontract EtherlessSmart {\r\n  address ownerAddress;\r\n  string data = \"hello!\";\r\n  uint256 balance = 0;\r\n  uint256 requestId; //incremented at every run request\r\n\r\n  struct jsFunction {\r\n    string name;\r\n    //maybe add function signature!\r\n    uint256 price; //decide unit of measurement (probably wei for ease of use and not having 0.0000...00something ether)\r\n    address payable developer;\r\n    bool exists;\r\n  }\r\n\r\n  mapping (string => jsFunction) private availableFunctions; //check if struct in mapping is set to 0 by default\r\n  bytes32[] functionNames;\r\n\r\n  //events\r\n  //event run\r\n  event runRequest(string funcname, string param, uint256 indexed id);\r\n  //event response\r\n  event response(string result, uint256 indexed id);\r\n\r\n  constructor() public {\r\n    ownerAddress = msg.sender;\r\n  }\r\n\r\n  modifier onlyOwner(address _invokedFrom) {\r\n    require(_invokedFrom == ownerAddress, \"You are not the owner of the contract!\");\r\n    _;\r\n  }\r\n\r\n  //FUNCTIONS THAT ENABLE TYPE CONVERSION BETWEEN STRING AND BYTES32\r\n  //converts a string to bytes32\r\n  function stringToBytes(string memory source) public pure returns (bytes32 result) {\r\n    bytes memory tempEmptyStringTest = bytes(source);\r\n    if(tempEmptyStringTest.length == 0) {\r\n        return 0x0;\r\n    } assembly {\r\n        result := mload(add(source, 32))\r\n    }\r\n  }\r\n\r\n  //converts a bytes32 to string\r\n  function bytes32ToStr(bytes32 _bytes32) public pure returns (string memory) {\r\n    bytes memory bytesArray = new bytes(32);\r\n    for (uint256 i; i < 32; i++) {\r\n        bytesArray[i] = _bytes32[i];\r\n        }\r\n    return string(bytesArray);\r\n    }\r\n\r\n  //FUNCTIONS THAT IMPLEMENT OPERATIONS ON THE AVAILABLEFUNCTIONS LIST\r\n  //getList -> returns the full list of names of available functions\r\n  function getList() public view returns (bytes32[] memory) {\r\n    return functionNames;\r\n  }\r\n\r\n  //existsFunction -> checks if a certain function is in the availableFunctions list\r\n  function existsFunction(string memory name) public view returns (bool) {\r\n    if(availableFunctions[name].exists) {\r\n        return true;\r\n    } else {\r\n        return false;\r\n    }\r\n  }\r\n\r\n  //addFunction -> adds a function that has just been deployed to the list\r\n  function addFunction(string memory name, uint256 price) public {\r\n    address payable developer = msg.sender;\r\n    availableFunctions[name] = jsFunction(name, price, developer, true);\r\n    functionNames.push(stringToBytes(name));\r\n  }\r\n\r\n  //removeFunction -> removes a given function from availableFunctions list\r\n  function removeFunction(string memory toRemove) public {\r\n    delete availableFunctions[toRemove];\r\n    for (uint index = 0; index < functionNames.length; index++) {\r\n        if(uint(keccak256(abi.encodePacked(bytes32ToStr(functionNames[index])))) == uint(keccak256(abi.encodePacked(toRemove)))){\r\n            //delete functionNames[index]; //check if length is correct after deleting an element\r\n            functionNames[index] = functionNames[functionNames.length - 1];\r\n            functionNames.pop();\r\n        }\r\n    }\r\n  }\r\n\r\n//MAIN COMMANDS\r\n  //runFunction -> requests execution of the function\r\n  function runFunction(string memory funcName, string memory param) public payable  returns (uint256) {\r\n    require(existsFunction(funcName), \"The function you're looking for does not exist! :'(\");\r\n    data = funcName;\r\n    uint256 funcPrice = availableFunctions[funcName].price;\r\n    address payable funcDev = availableFunctions[funcName].developer;\r\n\r\n    require(msg.value >= funcPrice, \"Insufficient amount sent! :'(\");\r\n    balance += msg.value;\r\n\r\n    sendAmount(funcDev, funcPrice);\r\n\r\n    getNewId();\r\n    emit runRequest(funcName, param, requestId);\r\n    return requestId;\r\n  }\r\n\r\n  //resultFunction -> returns the result of a function execution\r\n  function resultFunction(string memory result, uint256 id) public onlyOwner(msg.sender){\r\n    emit response(result, id);\r\n  }\r\n\r\n  function getBalance() public view returns (uint256){\r\n    return balance;\r\n }\r\n\r\n function getData() public view returns(string memory){\r\n   return data;\r\n }\r\n\r\n  //sendAmount -> sends the given amount to a certain address\r\n function sendAmount(address payable to, uint256 amount) public {\r\n   balance -= amount; //remainder from payment\r\n   to.transfer(amount);\r\n }\r\n\r\n  //getNewId -> increments requestId\r\n function getNewId() private returns (uint256){\r\n   return requestId++;\r\n }\r\n}",
  "sourcePath": "C:\\Users\\verof\\OneDrive\\Desktop\\etherless-smart-effect\\contracts\\EtherlessSmart.sol",
  "compiler": {
    "name": "solc",
    "version": "0.5.16+commit.9c3226ce.Emscripten.clang"
  },
  "schemaVersion": "3.1.0",
  "updatedAt": "2020-04-29T16:06:41.866Z",
  "networkType": "ethereum",
  "devdoc": {
    "methods": {}
  },
  "userdoc": {
    "methods": {}
  }
}