{
  "contractName": "EtherlessSmart",
  "abi": [
    {
      "anonymous": false,
      "inputs": [
        {
          "indexed": false,
          "internalType": "string",
          "name": "result",
          "type": "string"
        },
        {
          "indexed": true,
          "internalType": "string",
          "name": "id",
          "type": "string"
        }
      ],
      "name": "response",
      "type": "event"
    },
    {
      "anonymous": false,
      "inputs": [
        {
          "indexed": false,
          "internalType": "string",
          "name": "funcname",
          "type": "string"
        },
        {
          "indexed": false,
          "internalType": "string",
          "name": "param",
          "type": "string"
        },
        {
          "indexed": true,
          "internalType": "string",
          "name": "id",
          "type": "string"
        }
      ],
      "name": "runRequest",
      "type": "event"
    },
    {
      "constant": true,
      "inputs": [],
      "name": "getList",
      "outputs": [
        {
          "internalType": "string[]",
          "name": "",
          "type": "string[]"
        }
      ],
      "payable": false,
      "stateMutability": "view",
      "type": "function"
    },
    {
      "constant": true,
      "inputs": [
        {
          "internalType": "string",
          "name": "name",
          "type": "string"
        }
      ],
      "name": "existsFunction",
      "outputs": [
        {
          "internalType": "bool",
          "name": "",
          "type": "bool"
        }
      ],
      "payable": false,
      "stateMutability": "view",
      "type": "function"
    },
    {
      "constant": false,
      "inputs": [
        {
          "internalType": "string",
          "name": "name",
          "type": "string"
        },
        {
          "internalType": "uint256",
          "name": "price",
          "type": "uint256"
        }
      ],
      "name": "addFunction",
      "outputs": [],
      "payable": false,
      "stateMutability": "nonpayable",
      "type": "function"
    },
    {
      "constant": false,
      "inputs": [
        {
          "internalType": "string",
          "name": "toRemove",
          "type": "string"
        }
      ],
      "name": "removeFunction",
      "outputs": [],
      "payable": false,
      "stateMutability": "nonpayable",
      "type": "function"
    },
    {
      "constant": false,
      "inputs": [
        {
          "internalType": "string",
          "name": "funcName",
          "type": "string"
        },
        {
          "internalType": "string",
          "name": "param",
          "type": "string"
        },
        {
          "internalType": "string",
          "name": "id",
          "type": "string"
        }
      ],
      "name": "runFunction",
      "outputs": [],
      "payable": true,
      "stateMutability": "payable",
      "type": "function"
    },
    {
      "constant": false,
      "inputs": [
        {
          "internalType": "string",
          "name": "result",
          "type": "string"
        },
        {
          "internalType": "string",
          "name": "id",
          "type": "string"
        }
      ],
      "name": "resultFunction",
      "outputs": [],
      "payable": false,
      "stateMutability": "nonpayable",
      "type": "function"
    },
    {
      "constant": true,
      "inputs": [],
      "name": "getBalance",
      "outputs": [
        {
          "internalType": "uint256",
          "name": "",
          "type": "uint256"
        }
      ],
      "payable": false,
      "stateMutability": "view",
      "type": "function"
    },
    {
      "constant": true,
      "inputs": [],
      "name": "getData",
      "outputs": [
        {
          "internalType": "string",
          "name": "",
          "type": "string"
        }
      ],
      "payable": false,
      "stateMutability": "view",
      "type": "function"
    },
    {
      "constant": false,
      "inputs": [
        {
          "internalType": "address payable",
          "name": "to",
          "type": "address"
        },
        {
          "internalType": "uint256",
          "name": "amount",
          "type": "uint256"
        }
      ],
      "name": "sendAmount",
      "outputs": [],
      "payable": false,
      "stateMutability": "nonpayable",
      "type": "function"
    }
  ],
  "bytecode": "0x60806040526040518060400160405280600681526020017f68656c6c6f21000000000000000000000000000000000000000000000000000081525060009080519060200190620000519291906200006b565b5060006001553480156200006457600080fd5b506200011a565b828054600181600116156101000203166002900490600052602060002090601f016020900481019282601f10620000ae57805160ff1916838001178555620000df565b82800160010185558215620000df579182015b82811115620000de578251825591602001919060010190620000c1565b5b509050620000ee9190620000f2565b5090565b6200011791905b8082111562000113576000816000905550600101620000f9565b5090565b90565b6112a4806200012a6000396000f3fe6080604052600436106100865760003560e01c806377e54aad1161005957806377e54aad1461012657806384ecd6851461014f578063942b765a1461018c578063c3e0d45f146101b7578063f058f47c146101e057610086565b806312065fe01461008b5780633bc5de30146100b65780633cf37853146100e15780635d461de5146100fd575b600080fd5b34801561009757600080fd5b506100a0610209565b6040516100ad9190611093565b60405180910390f35b3480156100c257600080fd5b506100cb610213565b6040516100d89190610ffa565b60405180910390f35b6100fb60048036036100f69190810190610c26565b6102b5565b005b34801561010957600080fd5b50610124600480360361011f9190810190610b3d565b610433565b005b34801561013257600080fd5b5061014d60048036036101489190810190610bba565b61048e565b005b34801561015b57600080fd5b5061017660048036036101719190810190610b79565b6104df565b6040516101839190610fdf565b60405180910390f35b34801561019857600080fd5b506101a1610528565b6040516101ae9190610fbd565b60405180910390f35b3480156101c357600080fd5b506101de60048036036101d99190810190610b79565b610611565b005b3480156101ec57600080fd5b5061020760048036036102029190810190610cbd565b610799565b005b6000600154905090565b606060008054600181600116156101000203166002900480601f0160208091040260200160405190810160405280929190818152602001828054600181600116156101000203166002900480156102ab5780601f10610280576101008083540402835291602001916102ab565b820191906000526020600020905b81548152906001019060200180831161028e57829003601f168201915b5050505050905090565b6102be836104df565b6102fd576040517f08c379a00000000000000000000000000000000000000000000000000000000081526004016102f490611073565b60405180910390fd5b82600090805190602001906103139291906108cb565b5060006002846040516103269190610f8f565b9081526020016040518091039020600101549050600060028560405161034c9190610f8f565b908152602001604051809103902060020160009054906101000a900473ffffffffffffffffffffffffffffffffffffffff169050813410156103c3576040517f08c379a00000000000000000000000000000000000000000000000000000000081526004016103ba90611053565b60405180910390fd5b346001600082825401925050819055506103dd8183610433565b826040516103eb9190610f8f565b60405180910390207f23829311ecf5cf24f39d20da2b6ef938b6113e7d286de34d23be195f634f17bc868660405161042492919061101c565b60405180910390a25050505050565b806001600082825403925050819055508173ffffffffffffffffffffffffffffffffffffffff166108fc829081150290604051600060405180830381858888f19350505050158015610489573d6000803e3d6000fd5b505050565b8060405161049c9190610f8f565b60405180910390207f8ca72f1344a3b1c07ac9e52294631ea03b84b05c863aa1e8964e042e60c6539e836040516104d39190610ffa565b60405180910390a25050565b60006002826040516104f19190610f8f565b908152602001604051809103902060020160149054906101000a900460ff161561051e5760019050610523565b600090505b919050565b60606003805480602002602001604051908101604052809291908181526020016000905b82821015610608578382906000526020600020018054600181600116156101000203166002900480601f0160208091040260200160405190810160405280929190818152602001828054600181600116156101000203166002900480156105f45780601f106105c9576101008083540402835291602001916105f4565b820191906000526020600020905b8154815290600101906020018083116105d757829003601f168201915b50505050508152602001906001019061054c565b50505050905090565b6002816040516106219190610f8f565b908152602001604051809103902060008082016000610640919061094b565b60018201600090556002820160006101000a81549073ffffffffffffffffffffffffffffffffffffffff02191690556002820160146101000a81549060ff0219169055505060008090505b60038054905081101561079557816040516020016106a99190610f8f565b6040516020818303038152906040528051906020012060001c600382815481106106cf57fe5b906000526020600020016040516020016106e99190610fa6565b6040516020818303038152906040528051906020012060001c14156107885760036001600380549050038154811061071d57fe5b906000526020600020016003828154811061073457fe5b90600052602060002001908054600181600116156101000203166002900461075d929190610993565b50600380548061076957fe5b600190038181906000526020600020016000610785919061094b565b90555b808060010191505061068b565b5050565b600033905060405180608001604052808481526020018381526020018273ffffffffffffffffffffffffffffffffffffffff168152602001600115158152506002846040516107e89190610f8f565b90815260200160405180910390206000820151816000019080519060200190610812929190610a1a565b506020820151816001015560408201518160020160006101000a81548173ffffffffffffffffffffffffffffffffffffffff021916908373ffffffffffffffffffffffffffffffffffffffff16021790555060608201518160020160146101000a81548160ff02191690831515021790555090505060038390806001815401808255809150509060018203906000526020600020016000909192909190915090805190602001906108c49291906108cb565b5050505050565b828054600181600116156101000203166002900490600052602060002090601f016020900481019282601f1061090c57805160ff191683800117855561093a565b8280016001018555821561093a579182015b8281111561093957825182559160200191906001019061091e565b5b5090506109479190610a9a565b5090565b50805460018160011615610100020316600290046000825580601f106109715750610990565b601f01602090049060005260206000209081019061098f9190610a9a565b5b50565b828054600181600116156101000203166002900490600052602060002090601f016020900481019282601f106109cc5780548555610a09565b82800160010185558215610a0957600052602060002091601f016020900482015b82811115610a085782548255916001019190600101906109ed565b5b509050610a169190610a9a565b5090565b828054600181600116156101000203166002900490600052602060002090601f016020900481019282601f10610a5b57805160ff1916838001178555610a89565b82800160010185558215610a89579182015b82811115610a88578251825591602001919060010190610a6d565b5b509050610a969190610a9a565b5090565b610abc91905b80821115610ab8576000816000905550600101610aa0565b5090565b90565b600081359050610ace81611233565b92915050565b600082601f830112610ae557600080fd5b8135610af8610af3826110db565b6110ae565b91508082526020830160208301858383011115610b1457600080fd5b610b1f8382846111e0565b50505092915050565b600081359050610b378161124a565b92915050565b60008060408385031215610b5057600080fd5b6000610b5e85828601610abf565b9250506020610b6f85828601610b28565b9150509250929050565b600060208284031215610b8b57600080fd5b600082013567ffffffffffffffff811115610ba557600080fd5b610bb184828501610ad4565b91505092915050565b60008060408385031215610bcd57600080fd5b600083013567ffffffffffffffff811115610be757600080fd5b610bf385828601610ad4565b925050602083013567ffffffffffffffff811115610c1057600080fd5b610c1c85828601610ad4565b9150509250929050565b600080600060608486031215610c3b57600080fd5b600084013567ffffffffffffffff811115610c5557600080fd5b610c6186828701610ad4565b935050602084013567ffffffffffffffff811115610c7e57600080fd5b610c8a86828701610ad4565b925050604084013567ffffffffffffffff811115610ca757600080fd5b610cb386828701610ad4565b9150509250925092565b60008060408385031215610cd057600080fd5b600083013567ffffffffffffffff811115610cea57600080fd5b610cf685828601610ad4565b9250506020610d0785828601610b28565b9150509250929050565b6000610d1d8383610e13565b905092915050565b6000610d308261112c565b610d3a818561115a565b935083602082028501610d4c85611107565b8060005b85811015610d885784840389528151610d698582610d11565b9450610d748361114d565b925060208a01995050600181019050610d50565b50829750879550505050505092915050565b610da3816111aa565b82525050565b6000610db482611142565b610dbe818561117c565b9350610dce8185602086016111ef565b610dd781611222565b840191505092915050565b6000610ded82611142565b610df7818561118d565b9350610e078185602086016111ef565b80840191505092915050565b6000610e1e82611137565b610e28818561116b565b9350610e388185602086016111ef565b610e4181611222565b840191505092915050565b600081546001811660008114610e695760018114610e8e57610ed2565b607f6002830416610e7a818761118d565b955060ff1983168652808601935050610ed2565b60028204610e9c818761118d565b9550610ea785611117565b60005b82811015610ec957815481890152600182019150602081019050610eaa565b82880195505050505b505092915050565b6000610ee7601d8361117c565b91507f496e73756666696369656e7420616d6f756e742073656e7421203a27280000006000830152602082019050919050565b6000610f2760338361117c565b91507f5468652066756e6374696f6e20796f75277265206c6f6f6b696e6720666f722060008301527f646f6573206e6f7420657869737421203a2728000000000000000000000000006020830152604082019050919050565b610f89816111d6565b82525050565b6000610f9b8284610de2565b915081905092915050565b6000610fb28284610e4c565b915081905092915050565b60006020820190508181036000830152610fd78184610d25565b905092915050565b6000602082019050610ff46000830184610d9a565b92915050565b600060208201905081810360008301526110148184610da9565b905092915050565b600060408201905081810360008301526110368185610da9565b9050818103602083015261104a8184610da9565b90509392505050565b6000602082019050818103600083015261106c81610eda565b9050919050565b6000602082019050818103600083015261108c81610f1a565b9050919050565b60006020820190506110a86000830184610f80565b92915050565b6000604051905081810181811067ffffffffffffffff821117156110d157600080fd5b8060405250919050565b600067ffffffffffffffff8211156110f257600080fd5b601f19601f8301169050602081019050919050565b6000819050602082019050919050565b60008190508160005260206000209050919050565b600081519050919050565b600081519050919050565b600081519050919050565b6000602082019050919050565b600082825260208201905092915050565b600082825260208201905092915050565b600082825260208201905092915050565b600081905092915050565b60006111a3826111b6565b9050919050565b60008115159050919050565b600073ffffffffffffffffffffffffffffffffffffffff82169050919050565b6000819050919050565b82818337600083830152505050565b60005b8381101561120d5780820151818401526020810190506111f2565b8381111561121c576000848401525b50505050565b6000601f19601f8301169050919050565b61123c81611198565b811461124757600080fd5b50565b611253816111d6565b811461125e57600080fd5b5056fea365627a7a72315820cd8fa782e277cff28a4a2ea6f66f31e9e4026c0cb9da89610c5c23ff7c0f2a026c6578706572696d656e74616cf564736f6c63430005100040",
  "source": "pragma solidity >=0.4.22 <0.7.0;\r\npragma experimental ABIEncoderV2;\r\n\r\ncontract EtherlessSmart {\r\n\r\n    string data = \"hello!\";\r\n    uint256 balance = 0;\r\n\r\n    struct jsFunction {\r\n        string name;\r\n        //maybe add function signature!\r\n        uint256 price; //decide unit of measurement (probably wei for ease of use and not having 0.0000...00something ether)\r\n        address payable developer;\r\n        bool exists;\r\n    }\r\n\r\n    mapping (string => jsFunction) private availableFunctions; //check if struct in mapping is set to 0 by default\r\n    string[] functionNames;\r\n\r\n    //events\r\n    //event run\r\n    event runRequest(string funcname, string param, string indexed id);\r\n    //event response\r\n    event response(string result, string indexed id);\r\n\r\n    // functions to check list (availableFunctions)\r\n    //getList -> returns the full list of available functions\r\n    function getList() public view returns (string[] memory) {\r\n      return functionNames;\r\n    }\r\n\r\n    //existsFunction -> check if function is in the availableFunctions list\r\n    function existsFunction(string memory name) public view returns (bool) {\r\n      if(availableFunctions[name].exists) {\r\n          return true;\r\n      } else {\r\n          return false;\r\n      }\r\n    }\r\n\r\n    //addFunction -> add deployed function to list\r\n    function addFunction(string memory name, uint256 price) public {\r\n      address payable developer = msg.sender;\r\n      availableFunctions[name] = jsFunction(name, price, developer, true);\r\n      functionNames.push(name); //check if length is correct after adding an element\r\n    }\r\n\r\n    //removeFunction -> remove function from availableFunctions list\r\n    function removeFunction(string memory toRemove) public {\r\n      delete availableFunctions[toRemove];\r\n      for (uint index = 0; index < functionNames.length; index++) {\r\n          if(uint(keccak256(abi.encodePacked(functionNames[index]))) == uint(keccak256(abi.encodePacked(toRemove)))){\r\n              //delete functionNames[index]; //check if length is correct after deleting an element\r\n              functionNames[index] = functionNames[functionNames.length - 1];\r\n              functionNames.pop();\r\n          }\r\n      }\r\n    }\r\n\r\n// main commands\r\n    //runFunction -> requests execution of the function (call to existsFunction - requests payment - check payment - emit executeFunction event)\r\n    function runFunction(string memory funcName, string memory param, string memory id) public payable {\r\n      require(existsFunction(funcName), \"The function you're looking for does not exist! :'(\");\r\n      data = funcName;\r\n      uint256 funcPrice = availableFunctions[funcName].price;\r\n      address payable funcDev = availableFunctions[funcName].developer;\r\n\r\n      require(msg.value >= funcPrice, \"Insufficient amount sent! :'(\");\r\n      balance += msg.value;\r\n\r\n      sendAmount(funcDev, funcPrice);\r\n      emit runRequest(funcName, param, id);\r\n    }\r\n\r\n    function resultFunction(string memory result, string memory id) public {\r\n      emit response(result, id);\r\n    }\r\n    //deployFunction -> deployes the user developed function\r\n    //deleteFunction -> delete one of the caller's owned functions\r\n    //...\r\n\r\n    function getBalance() public view returns (uint256){\r\n      return balance;\r\n   }\r\n\r\n   function getData() public view returns(string memory){\r\n     return data;\r\n   }\r\n\r\n   function sendAmount(address payable to, uint256 amount) public {\r\n       balance -= amount; //remainder fom payment\r\n       to.transfer(amount);\r\n   }\r\n}",
  "sourcePath": "C:\\Users\\verof\\OneDrive\\Desktop\\etherless-smart-effect\\contracts\\EtherlessSmart.sol",
  "compiler": {
    "name": "solc",
    "version": "0.5.16+commit.9c3226ce.Emscripten.clang"
  },
  "schemaVersion": "3.1.0",
  "updatedAt": "2020-04-27T13:52:19.486Z",
  "networkType": "ethereum",
  "devdoc": {
    "methods": {}
  },
  "userdoc": {
    "methods": {}
  }
}