{
  "contractName": "EtherlessSmart",
  "abi": [
    {
      "inputs": [],
      "payable": false,
      "stateMutability": "nonpayable",
      "type": "constructor"
    },
    {
      "anonymous": false,
      "inputs": [
        {
          "indexed": false,
          "internalType": "string",
          "name": "result",
          "type": "string"
        },
        {
          "indexed": true,
          "internalType": "uint256",
          "name": "id",
          "type": "uint256"
        }
      ],
      "name": "response",
      "type": "event"
    },
    {
      "anonymous": false,
      "inputs": [
        {
          "indexed": false,
          "internalType": "string",
          "name": "funcname",
          "type": "string"
        },
        {
          "indexed": false,
          "internalType": "string",
          "name": "param",
          "type": "string"
        },
        {
          "indexed": true,
          "internalType": "uint256",
          "name": "id",
          "type": "uint256"
        }
      ],
      "name": "runRequest",
      "type": "event"
    },
    {
      "constant": true,
      "inputs": [
        {
          "internalType": "string",
          "name": "source",
          "type": "string"
        }
      ],
      "name": "stringToBytes",
      "outputs": [
        {
          "internalType": "bytes32",
          "name": "result",
          "type": "bytes32"
        }
      ],
      "payable": false,
      "stateMutability": "pure",
      "type": "function"
    },
    {
      "constant": true,
      "inputs": [
        {
          "internalType": "bytes32",
          "name": "_bytes32",
          "type": "bytes32"
        }
      ],
      "name": "bytes32ToStr",
      "outputs": [
        {
          "internalType": "string",
          "name": "",
          "type": "string"
        }
      ],
      "payable": false,
      "stateMutability": "pure",
      "type": "function"
    },
    {
      "constant": true,
      "inputs": [],
      "name": "getList",
      "outputs": [
        {
          "internalType": "bytes32[]",
          "name": "",
          "type": "bytes32[]"
        }
      ],
      "payable": false,
      "stateMutability": "view",
      "type": "function"
    },
    {
      "constant": true,
      "inputs": [
        {
          "internalType": "string",
          "name": "name",
          "type": "string"
        }
      ],
      "name": "existsFunction",
      "outputs": [
        {
          "internalType": "bool",
          "name": "",
          "type": "bool"
        }
      ],
      "payable": false,
      "stateMutability": "view",
      "type": "function"
    },
    {
      "constant": false,
      "inputs": [
        {
          "internalType": "string",
          "name": "name",
          "type": "string"
        },
        {
          "internalType": "uint256",
          "name": "price",
          "type": "uint256"
        }
      ],
      "name": "addFunction",
      "outputs": [],
      "payable": false,
      "stateMutability": "nonpayable",
      "type": "function"
    },
    {
      "constant": false,
      "inputs": [
        {
          "internalType": "string",
          "name": "toRemove",
          "type": "string"
        }
      ],
      "name": "removeFunction",
      "outputs": [],
      "payable": false,
      "stateMutability": "nonpayable",
      "type": "function"
    },
    {
      "constant": false,
      "inputs": [
        {
          "internalType": "string",
          "name": "funcName",
          "type": "string"
        },
        {
          "internalType": "string",
          "name": "param",
          "type": "string"
        }
      ],
      "name": "runFunction",
      "outputs": [],
      "payable": true,
      "stateMutability": "payable",
      "type": "function"
    },
    {
      "constant": false,
      "inputs": [
        {
          "internalType": "string",
          "name": "result",
          "type": "string"
        },
        {
          "internalType": "uint256",
          "name": "id",
          "type": "uint256"
        }
      ],
      "name": "resultFunction",
      "outputs": [],
      "payable": false,
      "stateMutability": "nonpayable",
      "type": "function"
    },
    {
      "constant": true,
      "inputs": [],
      "name": "getBalance",
      "outputs": [
        {
          "internalType": "uint256",
          "name": "",
          "type": "uint256"
        }
      ],
      "payable": false,
      "stateMutability": "view",
      "type": "function"
    },
    {
      "constant": false,
      "inputs": [
        {
          "internalType": "address payable",
          "name": "to",
          "type": "address"
        },
        {
          "internalType": "uint256",
          "name": "amount",
          "type": "uint256"
        }
      ],
      "name": "sendAmount",
      "outputs": [],
      "payable": false,
      "stateMutability": "nonpayable",
      "type": "function"
    }
  ],
  "bytecode": "0x6080604052600060015534801561001557600080fd5b50336000806101000a81548173ffffffffffffffffffffffffffffffffffffffff021916908373ffffffffffffffffffffffffffffffffffffffff16021790555060006002819055506112998061006d6000396000f3fe6080604052600436106100915760003560e01c8063942b765a11610059578063942b765a14610420578063c3e0d45f1461048c578063e106fb4b14610554578063ef0b236814610630578063f058f47c146106e457610091565b8063086751f71461009657806312065fe0146101e857806351a26673146102135780635d461de5146102e557806384ecd68514610340575b600080fd5b6101e6600480360360408110156100ac57600080fd5b81019080803590602001906401000000008111156100c957600080fd5b8201836020820111156100db57600080fd5b803590602001918460018302840111640100000000831117156100fd57600080fd5b91908080601f016020809104026020016040519081016040528093929190818152602001838380828437600081840152601f19601f8201169050808301925050505050505091929192908035906020019064010000000081111561016057600080fd5b82018360208201111561017257600080fd5b8035906020019184600183028401116401000000008311171561019457600080fd5b91908080601f016020809104026020016040519081016040528093929190818152602001838380828437600081840152601f19601f8201169050808301925050505050505091929192905050506107b6565b005b3480156101f457600080fd5b506101fd610ac1565b6040518082815260200191505060405180910390f35b34801561021f57600080fd5b506102e36004803603604081101561023657600080fd5b810190808035906020019064010000000081111561025357600080fd5b82018360208201111561026557600080fd5b8035906020019184600183028401116401000000008311171561028757600080fd5b91908080601f016020809104026020016040519081016040528093929190818152602001838380828437600081840152601f19601f82011690508083019250505050505050919291929080359060200190929190505050610acb565b005b3480156102f157600080fd5b5061033e6004803603604081101561030857600080fd5b81019080803573ffffffffffffffffffffffffffffffffffffffff16906020019092919080359060200190929190505050610c13565b005b34801561034c57600080fd5b506104066004803603602081101561036357600080fd5b810190808035906020019064010000000081111561038057600080fd5b82018360208201111561039257600080fd5b803590602001918460018302840111640100000000831117156103b457600080fd5b91908080601f016020809104026020016040519081016040528093929190818152602001838380828437600081840152601f19601f820116905080830192505050505050509192919290505050610c6e565b604051808215151515815260200191505060405180910390f35b34801561042c57600080fd5b50610435610d02565b6040518080602001828103825283818151815260200191508051906020019060200280838360005b8381101561047857808201518184015260208101905061045d565b505050509050019250505060405180910390f35b34801561049857600080fd5b50610552600480360360208110156104af57600080fd5b81019080803590602001906401000000008111156104cc57600080fd5b8201836020820111156104de57600080fd5b8035906020019184600183028401116401000000008311171561050057600080fd5b91908080601f016020809104026020016040519081016040528093929190818152602001838380828437600081840152601f19601f820116905080830192505050505050509192919290505050610d5a565b005b34801561056057600080fd5b5061061a6004803603602081101561057757600080fd5b810190808035906020019064010000000081111561059457600080fd5b8201836020820111156105a657600080fd5b803590602001918460018302840111640100000000831117156105c857600080fd5b91908080601f016020809104026020016040519081016040528093929190818152602001838380828437600081840152601f19601f820116905080830192505050505050509192919290505050610ec1565b6040518082815260200191505060405180910390f35b34801561063c57600080fd5b506106696004803603602081101561065357600080fd5b8101908080359060200190929190505050610eec565b6040518080602001828103825283818151815260200191508051906020019080838360005b838110156106a957808201518184015260208101905061068e565b50505050905090810190601f1680156106d65780820380516001836020036101000a031916815260200191505b509250505060405180910390f35b3480156106f057600080fd5b506107b46004803603604081101561070757600080fd5b810190808035906020019064010000000081111561072457600080fd5b82018360208201111561073657600080fd5b8035906020019184600183028401116401000000008311171561075857600080fd5b91908080601f016020809104026020016040519081016040528093929190818152602001838380828437600081840152601f19601f82011690508083019250505050505050919291929080359060200190929190505050610f94565b005b6107bf82610c6e565b610814576040517f08c379a00000000000000000000000000000000000000000000000000000000081526004018080602001828103825260338152602001806112326033913960400191505060405180910390fd5b60006003836040518082805190602001908083835b6020831061084c5780518252602082019150602081019050602083039250610829565b6001836020036101000a038019825116818451168082178552505050505050905001915050908152602001604051809103902060010154905060006003846040518082805190602001908083835b602083106108bd578051825260208201915060208101905060208303925061089a565b6001836020036101000a038019825116818451168082178552505050505050905001915050908152602001604051809103902060020160009054906101000a900473ffffffffffffffffffffffffffffffffffffffff1690508134101561098c576040517f08c379a000000000000000000000000000000000000000000000000000000000815260040180806020018281038252601d8152602001807f496e73756666696369656e7420616d6f756e742073656e7421203a272800000081525060200191505060405180910390fd5b346001600082825401925050819055506109a68183610c13565b6109ae611106565b506002547f7ef872871460aa4a20c88ad733e51a4ef38ab384f289ec5953b389964b05ac678585604051808060200180602001838103835285818151815260200191508051906020019080838360005b83811015610a195780820151818401526020810190506109fe565b50505050905090810190601f168015610a465780820380516001836020036101000a031916815260200191505b50838103825284818151815260200191508051906020019080838360005b83811015610a7f578082015181840152602081019050610a64565b50505050905090810190601f168015610aac5780820380516001836020036101000a031916815260200191505b5094505050505060405180910390a250505050565b6000600154905090565b336000809054906101000a900473ffffffffffffffffffffffffffffffffffffffff1673ffffffffffffffffffffffffffffffffffffffff168173ffffffffffffffffffffffffffffffffffffffff1614610b71576040517f08c379a000000000000000000000000000000000000000000000000000000000815260040180806020018281038252602681526020018061120c6026913960400191505060405180910390fd5b817fffda55e4304ec6259e8497cd0ba9fa89ccde91cf30fa16cdb7b79a22b92537a8846040518080602001828103825283818151815260200191508051906020019080838360005b83811015610bd4578082015181840152602081019050610bb9565b50505050905090810190601f168015610c015780820380516001836020036101000a031916815260200191505b509250505060405180910390a2505050565b806001600082825403925050819055508173ffffffffffffffffffffffffffffffffffffffff166108fc829081150290604051600060405180830381858888f19350505050158015610c69573d6000803e3d6000fd5b505050565b60006003826040518082805190602001908083835b60208310610ca65780518252602082019150602081019050602083039250610c83565b6001836020036101000a038019825116818451168082178552505050505050905001915050908152602001604051809103902060020160149054906101000a900460ff1615610cf85760019050610cfd565b600090505b919050565b60606004805480602002602001604051908101604052809291908181526020018280548015610d5057602002820191906000526020600020905b815481526020019060010190808311610d3c575b5050505050905090565b6003816040518082805190602001908083835b60208310610d905780518252602082019150602081019050602083039250610d6d565b6001836020036101000a038019825116818451168082178552505050505050905001915050908152602001604051809103902060008082016000610dd4919061111e565b60018201600090556002820160006101000a81549073ffffffffffffffffffffffffffffffffffffffff02191690556002820160146101000a81549060ff0219169055505060008090505b600480549050811015610ebd57610e3582610ec1565b60048281548110610e4257fe5b90600052602060002001541415610eb057600460016004805490500381548110610e6857fe5b906000526020600020015460048281548110610e8057fe5b90600052602060002001819055506004805480610e9957fe5b600190038181906000526020600020016000905590555b8080600101915050610e1f565b5050565b60006060829050600081511415610ede576000801b915050610ee7565b60208301519150505b919050565b60608060206040519080825280601f01601f191660200182016040528015610f235781602001600182028038833980820191505090505b50905060005b6020811015610f8a57838160208110610f3e57fe5b1a60f81b828281518110610f4e57fe5b60200101907effffffffffffffffffffffffffffffffffffffffffffffffffffffffffffff1916908160001a9053508080600101915050610f29565b5080915050919050565b600033905060405180608001604052808481526020018381526020018273ffffffffffffffffffffffffffffffffffffffff168152602001600115158152506003846040518082805190602001908083835b602083106110095780518252602082019150602081019050602083039250610fe6565b6001836020036101000a03801982511681845116808217855250505050505090500191505090815260200160405180910390206000820151816000019080519060200190611058929190611166565b506020820151816001015560408201518160020160006101000a81548173ffffffffffffffffffffffffffffffffffffffff021916908373ffffffffffffffffffffffffffffffffffffffff16021790555060608201518160020160146101000a81548160ff02191690831515021790555090505060046110d884610ec1565b9080600181540180825580915050906001820390600052602060002001600090919290919091505550505050565b60006002600081548092919060010191905055905090565b50805460018160011615610100020316600290046000825580601f106111445750611163565b601f01602090049060005260206000209081019061116291906111e6565b5b50565b828054600181600116156101000203166002900490600052602060002090601f016020900481019282601f106111a757805160ff19168380011785556111d5565b828001600101855582156111d5579182015b828111156111d45782518255916020019190600101906111b9565b5b5090506111e291906111e6565b5090565b61120891905b808211156112045760008160009055506001016111ec565b5090565b9056fe596f7520617265206e6f7420746865206f776e6572206f662074686520636f6e7472616374215468652066756e6374696f6e20796f75277265206c6f6f6b696e6720666f7220646f6573206e6f7420657869737421203a2728a265627a7a7231582026b35331e3ddaa103192e6776bdbdc9dd42d14ad4dc60a1dd2f4bdc2a2684bc464736f6c63430005100032",
  "source": "pragma solidity >=0.4.22 <0.7.0;\r\n\r\n//TO DO//\r\n//getFuncInfo -> returns all the info stored in the mapping\r\n//deployFunction -> deployes the user developed function\r\n//deleteFunction -> delete one of the caller's owned functions in AWS\r\n\r\ncontract EtherlessSmart {\r\n  address ownerAddress;\r\n  uint256 balance = 0;\r\n  uint256 requestId; //incremented at every run request\r\n\r\n  struct jsFunction {\r\n    string name;\r\n    //maybe add function signature!\r\n    uint256 price; // wei\r\n    address payable developer;\r\n    bool exists;\r\n  }\r\n\r\n  mapping (string => jsFunction) private availableFunctions; //check if struct in mapping is set to 0 by default\r\n  bytes32[] functionNames;\r\n\r\n  //events\r\n  //event run\r\n  event runRequest(string funcname, string param, uint256 indexed id);\r\n  //event response\r\n  event response(string result, uint256 indexed id);\r\n\r\n  constructor() public {\r\n    ownerAddress = msg.sender;\r\n    requestId = 0;\r\n  }\r\n\r\n  modifier onlyOwner(address _invokedFrom) {\r\n    require(_invokedFrom == ownerAddress, \"You are not the owner of the contract!\");\r\n    _;\r\n  }\r\n\r\n  //FUNCTIONS THAT ENABLE TYPE CONVERSION BETWEEN STRING AND BYTES32\r\n  //converts a string to bytes32\r\n  function stringToBytes(string memory source) public pure returns (bytes32 result) {\r\n    bytes memory tempEmptyStringTest = bytes(source);\r\n    if(tempEmptyStringTest.length == 0) {\r\n        return 0x0;\r\n    } assembly {\r\n        result := mload(add(source, 32))\r\n    }\r\n  }\r\n\r\n  //converts a bytes32 to string\r\n  function bytes32ToStr(bytes32 _bytes32) public pure returns (string memory) {\r\n    bytes memory bytesArray = new bytes(32);\r\n    for (uint256 i; i < 32; i++) {\r\n        bytesArray[i] = _bytes32[i];\r\n        }\r\n    return string(bytesArray);\r\n    }\r\n\r\n  //FUNCTIONS THAT IMPLEMENT OPERATIONS ON THE AVAILABLEFUNCTIONS LIST\r\n  //getList -> returns the full list of names of available functions\r\n  function getList() public view returns (bytes32[] memory) {\r\n    return functionNames;\r\n  }\r\n\r\n  //existsFunction -> checks if a certain function is in the availableFunctions list\r\n  function existsFunction(string memory name) public view returns (bool) {\r\n    if(availableFunctions[name].exists) {\r\n        return true;\r\n    } else {\r\n        return false;\r\n    }\r\n  }\r\n\r\n  //addFunction -> adds a function that has just been deployed to the list\r\n  function addFunction(string memory name, uint256 price) public {\r\n    address payable developer = msg.sender;\r\n    availableFunctions[name] = jsFunction(name, price, developer, true);\r\n    functionNames.push(stringToBytes(name));\r\n  }\r\n\r\n  //removeFunction -> removes a given function from availableFunctions list\r\n  function removeFunction(string memory toRemove) public {\r\n    delete availableFunctions[toRemove];\r\n    for (uint index = 0; index < functionNames.length; index++) {\r\n        if(functionNames[index] == stringToBytes(toRemove)){\r\n            //delete functionNames[index]; //check if length is correct after deleting an element\r\n            functionNames[index] = functionNames[functionNames.length - 1];\r\n            functionNames.pop();\r\n        }\r\n    }\r\n  }\r\n\r\n//MAIN COMMANDS\r\n  //runFunction -> requests execution of the function\r\n  function runFunction(string memory funcName, string memory param) public payable {\r\n    require(existsFunction(funcName), \"The function you're looking for does not exist! :'(\");\r\n    uint256 funcPrice = availableFunctions[funcName].price;\r\n    address payable funcDev = availableFunctions[funcName].developer;\r\n\r\n    require(msg.value >= funcPrice, \"Insufficient amount sent! :'(\");\r\n    balance += msg.value;\r\n\r\n    sendAmount(funcDev, funcPrice);\r\n\r\n    getNewId();\r\n    emit runRequest(funcName, param, requestId);\r\n  }\r\n\r\n  //resultFunction -> returns the result of a function execution\r\n  function resultFunction(string memory result, uint256 id) public onlyOwner(msg.sender){\r\n    emit response(result, id);\r\n  }\r\n\r\n  function getBalance() public view returns (uint256){\r\n    return balance;\r\n }\r\n\r\n  //sendAmount -> sends the given amount to a certain address\r\n function sendAmount(address payable to, uint256 amount) public {\r\n   balance -= amount; //remainder from payment\r\n   to.transfer(amount);\r\n }\r\n\r\n  //getNewId -> increments requestId\r\n function getNewId() private returns (uint256){\r\n   return requestId++;\r\n }\r\n}\r\n",
  "sourcePath": "C:\\Users\\verof\\OneDrive\\Desktop\\etherless-smart-effect\\contracts\\EtherlessSmart.sol",
  "compiler": {
    "name": "solc",
    "version": "0.5.16+commit.9c3226ce.Emscripten.clang"
  },
  "schemaVersion": "3.1.0",
  "updatedAt": "2020-05-01T14:46:01.978Z",
  "devdoc": {
    "methods": {}
  },
  "userdoc": {
    "methods": {}
  }
}