{
  "contractName": "EtherlessSmart",
  "abi": [
    {
      "anonymous": false,
      "inputs": [
        {
          "indexed": false,
          "internalType": "string",
          "name": "_result",
          "type": "string"
        },
        {
          "indexed": false,
          "internalType": "string",
          "name": "id",
          "type": "string"
        }
      ],
      "name": "response",
      "type": "event"
    },
    {
      "anonymous": false,
      "inputs": [
        {
          "indexed": false,
          "internalType": "string",
          "name": "funcname",
          "type": "string"
        },
        {
          "indexed": false,
          "internalType": "string",
          "name": "param",
          "type": "string"
        },
        {
          "indexed": false,
          "internalType": "string",
          "name": "id",
          "type": "string"
        }
      ],
      "name": "runRequest",
      "type": "event"
    },
    {
      "constant": true,
      "inputs": [],
      "name": "getList",
      "outputs": [
        {
          "internalType": "string[]",
          "name": "",
          "type": "string[]"
        }
      ],
      "payable": false,
      "stateMutability": "view",
      "type": "function"
    },
    {
      "constant": true,
      "inputs": [
        {
          "internalType": "string",
          "name": "name",
          "type": "string"
        }
      ],
      "name": "existsFunction",
      "outputs": [
        {
          "internalType": "bool",
          "name": "",
          "type": "bool"
        }
      ],
      "payable": false,
      "stateMutability": "view",
      "type": "function"
    },
    {
      "constant": false,
      "inputs": [
        {
          "internalType": "string",
          "name": "name",
          "type": "string"
        },
        {
          "internalType": "uint256",
          "name": "price",
          "type": "uint256"
        },
        {
          "internalType": "address payable",
          "name": "developer",
          "type": "address"
        }
      ],
      "name": "addFunction",
      "outputs": [],
      "payable": false,
      "stateMutability": "nonpayable",
      "type": "function"
    },
    {
      "constant": false,
      "inputs": [
        {
          "internalType": "string",
          "name": "toRemove",
          "type": "string"
        }
      ],
      "name": "removeFunction",
      "outputs": [],
      "payable": false,
      "stateMutability": "nonpayable",
      "type": "function"
    },
    {
      "constant": false,
      "inputs": [
        {
          "internalType": "string",
          "name": "funcName",
          "type": "string"
        },
        {
          "internalType": "string",
          "name": "param",
          "type": "string"
        },
        {
          "internalType": "string",
          "name": "id",
          "type": "string"
        }
      ],
      "name": "runFunction",
      "outputs": [],
      "payable": true,
      "stateMutability": "payable",
      "type": "function"
    },
    {
      "constant": false,
      "inputs": [
        {
          "internalType": "string",
          "name": "result",
          "type": "string"
        },
        {
          "internalType": "string",
          "name": "id",
          "type": "string"
        }
      ],
      "name": "resultFunction",
      "outputs": [],
      "payable": false,
      "stateMutability": "nonpayable",
      "type": "function"
    }
  ],
  "bytecode": "0x60806040526040518060400160405280600681526020017f68656c6c6f2100000000000000000000000000000000000000000000000000008152506000908051906020019061004f929190610067565b50600060015534801561006157600080fd5b5061010c565b828054600181600116156101000203166002900490600052602060002090601f016020900481019282601f106100a857805160ff19168380011785556100d6565b828001600101855582156100d6579182015b828111156100d55782518255916020019190600101906100ba565b5b5090506100e391906100e7565b5090565b61010991905b808211156101055760008160009055506001016100ed565b5090565b90565b610dcb8061011b6000396000f3fe6080604052600436106100555760003560e01c80633cf378531461005a57806377e54aad1461007657806384ecd6851461009f578063942b765a146100dc578063c3e0d45f14610107578063d2a6390d14610130575b600080fd5b610074600480360361006f9190810190610820565b610159565b005b34801561008257600080fd5b5061009d600480360361009891908101906107b4565b6101c0565b005b3480156100ab57600080fd5b506100c660048036036100c19190810190610773565b6101fd565b6040516100d39190610b37565b60405180910390f35b3480156100e857600080fd5b506100f1610246565b6040516100fe9190610b15565b60405180910390f35b34801561011357600080fd5b5061012e60048036036101299190810190610773565b61032f565b005b34801561013c57600080fd5b50610157600480360361015291908101906108b7565b61045b565b005b826000908051906020019061016f929190610588565b50346001600082825401925050819055507f23829311ecf5cf24f39d20da2b6ef938b6113e7d286de34d23be195f634f17bc8383836040516101b393929190610b89565b60405180910390a1505050565b7f8ca72f1344a3b1c07ac9e52294631ea03b84b05c863aa1e8964e042e60c6539e82826040516101f1929190610b52565b60405180910390a15050565b600060028260405161020f9190610ae7565b908152602001604051809103902060020160149054906101000a900460ff161561023c5760019050610241565b600090505b919050565b60606003805480602002602001604051908101604052809291908181526020016000905b82821015610326578382906000526020600020018054600181600116156101000203166002900480601f0160208091040260200160405190810160405280929190818152602001828054600181600116156101000203166002900480156103125780601f106102e757610100808354040283529160200191610312565b820191906000526020600020905b8154815290600101906020018083116102f557829003601f168201915b50505050508152602001906001019061026a565b50505050905090565b60028160405161033f9190610ae7565b90815260200160405180910390206000808201600061035e9190610608565b60018201600090556002820160006101000a81549073ffffffffffffffffffffffffffffffffffffffff02191690556002820160146101000a81549060ff0219169055505060008090505b60038054905081101561045757816040516020016103c79190610ae7565b6040516020818303038152906040528051906020012060001c600382815481106103ed57fe5b906000526020600020016040516020016104079190610afe565b6040516020818303038152906040528051906020012060001c141561044a576003818154811061043357fe5b9060005260206000200160006104499190610608565b5b80806001019150506103a9565b5050565b60405180608001604052808481526020018381526020018273ffffffffffffffffffffffffffffffffffffffff168152602001600115158152506002846040516104a59190610ae7565b908152602001604051809103902060008201518160000190805190602001906104cf929190610650565b506020820151816001015560408201518160020160006101000a81548173ffffffffffffffffffffffffffffffffffffffff021916908373ffffffffffffffffffffffffffffffffffffffff16021790555060608201518160020160146101000a81548160ff0219169083151502179055509050506003839080600181540180825580915050906001820390600052602060002001600090919290919091509080519060200190610581929190610588565b5050505050565b828054600181600116156101000203166002900490600052602060002090601f016020900481019282601f106105c957805160ff19168380011785556105f7565b828001600101855582156105f7579182015b828111156105f65782518255916020019190600101906105db565b5b50905061060491906106d0565b5090565b50805460018160011615610100020316600290046000825580601f1061062e575061064d565b601f01602090049060005260206000209081019061064c91906106d0565b5b50565b828054600181600116156101000203166002900490600052602060002090601f016020900481019282601f1061069157805160ff19168380011785556106bf565b828001600101855582156106bf579182015b828111156106be5782518255916020019190600101906106a3565b5b5090506106cc91906106d0565b5090565b6106f291905b808211156106ee5760008160009055506001016106d6565b5090565b90565b60008135905061070481610d5a565b92915050565b600082601f83011261071b57600080fd5b813561072e61072982610c02565b610bd5565b9150808252602083016020830185838301111561074a57600080fd5b610755838284610d07565b50505092915050565b60008135905061076d81610d71565b92915050565b60006020828403121561078557600080fd5b600082013567ffffffffffffffff81111561079f57600080fd5b6107ab8482850161070a565b91505092915050565b600080604083850312156107c757600080fd5b600083013567ffffffffffffffff8111156107e157600080fd5b6107ed8582860161070a565b925050602083013567ffffffffffffffff81111561080a57600080fd5b6108168582860161070a565b9150509250929050565b60008060006060848603121561083557600080fd5b600084013567ffffffffffffffff81111561084f57600080fd5b61085b8682870161070a565b935050602084013567ffffffffffffffff81111561087857600080fd5b6108848682870161070a565b925050604084013567ffffffffffffffff8111156108a157600080fd5b6108ad8682870161070a565b9150509250925092565b6000806000606084860312156108cc57600080fd5b600084013567ffffffffffffffff8111156108e657600080fd5b6108f28682870161070a565b93505060206109038682870161075e565b9250506040610914868287016106f5565b9150509250925092565b600061092a8383610a20565b905092915050565b600061093d82610c53565b6109478185610c81565b93508360208202850161095985610c2e565b8060005b858110156109955784840389528151610976858261091e565b945061098183610c74565b925060208a0199505060018101905061095d565b50829750879550505050505092915050565b6109b081610cd1565b82525050565b60006109c182610c69565b6109cb8185610ca3565b93506109db818560208601610d16565b6109e481610d49565b840191505092915050565b60006109fa82610c69565b610a048185610cb4565b9350610a14818560208601610d16565b80840191505092915050565b6000610a2b82610c5e565b610a358185610c92565b9350610a45818560208601610d16565b610a4e81610d49565b840191505092915050565b600081546001811660008114610a765760018114610a9b57610adf565b607f6002830416610a878187610cb4565b955060ff1983168652808601935050610adf565b60028204610aa98187610cb4565b9550610ab485610c3e565b60005b82811015610ad657815481890152600182019150602081019050610ab7565b82880195505050505b505092915050565b6000610af382846109ef565b915081905092915050565b6000610b0a8284610a59565b915081905092915050565b60006020820190508181036000830152610b2f8184610932565b905092915050565b6000602082019050610b4c60008301846109a7565b92915050565b60006040820190508181036000830152610b6c81856109b6565b90508181036020830152610b8081846109b6565b90509392505050565b60006060820190508181036000830152610ba381866109b6565b90508181036020830152610bb781856109b6565b90508181036040830152610bcb81846109b6565b9050949350505050565b6000604051905081810181811067ffffffffffffffff82111715610bf857600080fd5b8060405250919050565b600067ffffffffffffffff821115610c1957600080fd5b601f19601f8301169050602081019050919050565b6000819050602082019050919050565b60008190508160005260206000209050919050565b600081519050919050565b600081519050919050565b600081519050919050565b6000602082019050919050565b600082825260208201905092915050565b600082825260208201905092915050565b600082825260208201905092915050565b600081905092915050565b6000610cca82610cdd565b9050919050565b60008115159050919050565b600073ffffffffffffffffffffffffffffffffffffffff82169050919050565b6000819050919050565b82818337600083830152505050565b60005b83811015610d34578082015181840152602081019050610d19565b83811115610d43576000848401525b50505050565b6000601f19601f8301169050919050565b610d6381610cbf565b8114610d6e57600080fd5b50565b610d7a81610cfd565b8114610d8557600080fd5b5056fea365627a7a723158204f70499107ab77de9dca36cadea6053a6040c58cbe47d871b109ea1a29a129126c6578706572696d656e74616cf564736f6c63430005100040",
  "source": "pragma solidity >=0.4.22 <0.7.0;\r\npragma experimental ABIEncoderV2;\r\n\r\ncontract EtherlessSmart {\r\n\r\n    string data = \"hello!\";\r\n    uint256 balance = 0;\r\n\r\n    struct jsFunction {\r\n        string name;\r\n        //maybe add function signature!\r\n        uint256 price; //decide unit of measurement (probably wei for ease of use and not having 0.0000...00something ether)\r\n        address payable developer;\r\n        bool exists;\r\n    }\r\n\r\n    mapping (string => jsFunction) private availableFunctions; //check if struct in mapping is set to 0 by default\r\n    string[] functionNames;\r\n\r\n    //events\r\n    //event run\r\n    event runRequest(string funcname, string param, string id);\r\n    //event response\r\n    event response(string _result, string id);\r\n\r\n    // functions to check list (availableFunctions)\r\n        //getList -> returns the full list of available functions\r\n        function getList() public view returns (string[] memory) {\r\n            return functionNames;\r\n        }\r\n\r\n        //existsFunction -> check if function is in the availableFunctions list\r\n        function existsFunction(string memory name) public view returns (bool) {\r\n            if(availableFunctions[name].exists) {\r\n                return true;\r\n            } else {\r\n                return false;\r\n            }\r\n        }\r\n\r\n        //addFunction -> add deployed function to list\r\n        function addFunction(string memory name, uint256 price, address payable developer) public {\r\n            availableFunctions[name] = jsFunction(name, price, developer, true);\r\n            functionNames.push(name); //check if length is correct after adding an element\r\n        }\r\n\r\n        //removeFunction -> remove function from availableFunctions list\r\n        function removeFunction(string memory toRemove) public {\r\n            delete availableFunctions[toRemove];\r\n            for (uint index = 0; index < functionNames.length; index++) {\r\n                if(uint(keccak256(abi.encodePacked(functionNames[index]))) == uint(keccak256(abi.encodePacked(toRemove)))){\r\n                    delete functionNames[index]; //check if length is correct after deleting an element\r\n                }\r\n            }\r\n        }\r\n\r\n    // main commands\r\n        //runFunction -> requests execution of the function (call to existsFunction - requests payment - check payment - emit executeFunction event)\r\n        function runFunction(string memory funcName, string memory param, string memory id) public payable {\r\n            data = funcName;\r\n            balance += msg.value;\r\n            emit runRequest(funcName, param, id);\r\n        }\r\n\r\n        function resultFunction(string memory result, string memory id) public {\r\n            emit response(result, id);\r\n        }\r\n        //deployFunction -> deployes the user developed function\r\n        //deleteFunction -> delete one of the caller's owned functions\r\n        //...\r\n}",
  "sourcePath": "C:\\Users\\verof\\OneDrive\\Desktop\\etherless-smart-effect\\contracts\\EtherlessSmart.sol",
  "compiler": {
    "name": "solc",
    "version": "0.5.16+commit.9c3226ce.Emscripten.clang"
  },
  "schemaVersion": "3.1.0",
  "updatedAt": "2020-04-26T16:37:00.461Z",
  "networkType": "ethereum",
  "devdoc": {
    "methods": {}
  },
  "userdoc": {
    "methods": {}
  }
}