{
  "contractName": "EtherlessSmart",
  "abi": [
    {
      "anonymous": false,
      "inputs": [
        {
          "indexed": false,
          "internalType": "string",
          "name": "_result",
          "type": "string"
        },
        {
          "indexed": false,
          "internalType": "string",
          "name": "id",
          "type": "string"
        }
      ],
      "name": "response",
      "type": "event"
    },
    {
      "anonymous": false,
      "inputs": [
        {
          "indexed": false,
          "internalType": "string",
          "name": "funcname",
          "type": "string"
        },
        {
          "indexed": false,
          "internalType": "string",
          "name": "param",
          "type": "string"
        },
        {
          "indexed": false,
          "internalType": "string",
          "name": "id",
          "type": "string"
        }
      ],
      "name": "runRequest",
      "type": "event"
    },
    {
      "constant": true,
      "inputs": [],
      "name": "getList",
      "outputs": [
        {
          "internalType": "string[]",
          "name": "",
          "type": "string[]"
        }
      ],
      "payable": false,
      "stateMutability": "view",
      "type": "function"
    },
    {
      "constant": true,
      "inputs": [
        {
          "internalType": "string",
          "name": "name",
          "type": "string"
        }
      ],
      "name": "existsFunction",
      "outputs": [
        {
          "internalType": "bool",
          "name": "",
          "type": "bool"
        }
      ],
      "payable": false,
      "stateMutability": "view",
      "type": "function"
    },
    {
      "constant": false,
      "inputs": [
        {
          "internalType": "string",
          "name": "name",
          "type": "string"
        },
        {
          "internalType": "uint256",
          "name": "price",
          "type": "uint256"
        }
      ],
      "name": "addFunction",
      "outputs": [],
      "payable": false,
      "stateMutability": "nonpayable",
      "type": "function"
    },
    {
      "constant": false,
      "inputs": [
        {
          "internalType": "string",
          "name": "toRemove",
          "type": "string"
        }
      ],
      "name": "removeFunction",
      "outputs": [],
      "payable": false,
      "stateMutability": "nonpayable",
      "type": "function"
    },
    {
      "constant": false,
      "inputs": [
        {
          "internalType": "string",
          "name": "funcName",
          "type": "string"
        },
        {
          "internalType": "string",
          "name": "param",
          "type": "string"
        },
        {
          "internalType": "string",
          "name": "id",
          "type": "string"
        }
      ],
      "name": "runFunction",
      "outputs": [],
      "payable": true,
      "stateMutability": "payable",
      "type": "function"
    },
    {
      "constant": false,
      "inputs": [
        {
          "internalType": "string",
          "name": "result",
          "type": "string"
        },
        {
          "internalType": "string",
          "name": "id",
          "type": "string"
        }
      ],
      "name": "resultFunction",
      "outputs": [],
      "payable": false,
      "stateMutability": "nonpayable",
      "type": "function"
    },
    {
      "constant": true,
      "inputs": [],
      "name": "getBalance",
      "outputs": [
        {
          "internalType": "uint256",
          "name": "",
          "type": "uint256"
        }
      ],
      "payable": false,
      "stateMutability": "view",
      "type": "function"
    },
    {
      "constant": true,
      "inputs": [],
      "name": "getData",
      "outputs": [
        {
          "internalType": "string",
          "name": "",
          "type": "string"
        }
      ],
      "payable": false,
      "stateMutability": "view",
      "type": "function"
    }
  ],
  "bytecode": "0x60806040526040518060400160405280600681526020017f68656c6c6f2100000000000000000000000000000000000000000000000000008152506000908051906020019061004f929190610067565b50600060015534801561006157600080fd5b5061010c565b828054600181600116156101000203166002900490600052602060002090601f016020900481019282601f106100a857805160ff19168380011785556100d6565b828001600101855582156100d6579182015b828111156100d55782518255916020019190600101906100ba565b5b5090506100e391906100e7565b5090565b61010991905b808211156101055760008160009055506001016100ed565b5090565b90565b610ed38061011b6000396000f3fe60806040526004361061007b5760003560e01c806384ecd6851161004e57806384ecd6851461011b578063942b765a14610158578063c3e0d45f14610183578063f058f47c146101ac5761007b565b806312065fe0146100805780633bc5de30146100ab5780633cf37853146100d657806377e54aad146100f2575b600080fd5b34801561008c57600080fd5b506100956101d5565b6040516100a29190610d0b565b60405180910390f35b3480156100b757600080fd5b506100c06101df565b6040516100cd9190610c66565b60405180910390f35b6100f060048036036100eb9190810190610938565b610281565b005b3480156100fe57600080fd5b50610119600480360361011491908101906108cc565b6102e8565b005b34801561012757600080fd5b50610142600480360361013d919081019061088b565b610325565b60405161014f9190610c4b565b60405180910390f35b34801561016457600080fd5b5061016d61036e565b60405161017a9190610c29565b60405180910390f35b34801561018f57600080fd5b506101aa60048036036101a5919081019061088b565b610457565b005b3480156101b857600080fd5b506101d360048036036101ce91908101906109cf565b610583565b005b6000600154905090565b606060008054600181600116156101000203166002900480601f0160208091040260200160405190810160405280929190818152602001828054600181600116156101000203166002900480156102775780601f1061024c57610100808354040283529160200191610277565b820191906000526020600020905b81548152906001019060200180831161025a57829003601f168201915b5050505050905090565b82600090805190602001906102979291906106b5565b50346001600082825401925050819055507f23829311ecf5cf24f39d20da2b6ef938b6113e7d286de34d23be195f634f17bc8383836040516102db93929190610cbf565b60405180910390a1505050565b7f8ca72f1344a3b1c07ac9e52294631ea03b84b05c863aa1e8964e042e60c6539e8282604051610319929190610c88565b60405180910390a15050565b60006002826040516103379190610bfb565b908152602001604051809103902060020160149054906101000a900460ff16156103645760019050610369565b600090505b919050565b60606003805480602002602001604051908101604052809291908181526020016000905b8282101561044e578382906000526020600020018054600181600116156101000203166002900480601f01602080910402602001604051908101604052809291908181526020018280546001816001161561010002031660029004801561043a5780601f1061040f5761010080835404028352916020019161043a565b820191906000526020600020905b81548152906001019060200180831161041d57829003601f168201915b505050505081526020019060010190610392565b50505050905090565b6002816040516104679190610bfb565b9081526020016040518091039020600080820160006104869190610735565b60018201600090556002820160006101000a81549073ffffffffffffffffffffffffffffffffffffffff02191690556002820160146101000a81549060ff0219169055505060008090505b60038054905081101561057f57816040516020016104ef9190610bfb565b6040516020818303038152906040528051906020012060001c6003828154811061051557fe5b9060005260206000200160405160200161052f9190610c12565b6040516020818303038152906040528051906020012060001c1415610572576003818154811061055b57fe5b9060005260206000200160006105719190610735565b5b80806001019150506104d1565b5050565b600033905060405180608001604052808481526020018381526020018273ffffffffffffffffffffffffffffffffffffffff168152602001600115158152506002846040516105d29190610bfb565b908152602001604051809103902060008201518160000190805190602001906105fc92919061077d565b506020820151816001015560408201518160020160006101000a81548173ffffffffffffffffffffffffffffffffffffffff021916908373ffffffffffffffffffffffffffffffffffffffff16021790555060608201518160020160146101000a81548160ff02191690831515021790555090505060038390806001815401808255809150509060018203906000526020600020016000909192909190915090805190602001906106ae9291906106b5565b5050505050565b828054600181600116156101000203166002900490600052602060002090601f016020900481019282601f106106f657805160ff1916838001178555610724565b82800160010185558215610724579182015b82811115610723578251825591602001919060010190610708565b5b50905061073191906107fd565b5090565b50805460018160011615610100020316600290046000825580601f1061075b575061077a565b601f01602090049060005260206000209081019061077991906107fd565b5b50565b828054600181600116156101000203166002900490600052602060002090601f016020900481019282601f106107be57805160ff19168380011785556107ec565b828001600101855582156107ec579182015b828111156107eb5782518255916020019190600101906107d0565b5b5090506107f991906107fd565b5090565b61081f91905b8082111561081b576000816000905550600101610803565b5090565b90565b600082601f83011261083357600080fd5b813561084661084182610d53565b610d26565b9150808252602083016020830185838301111561086257600080fd5b61086d838284610e26565b50505092915050565b60008135905061088581610e79565b92915050565b60006020828403121561089d57600080fd5b600082013567ffffffffffffffff8111156108b757600080fd5b6108c384828501610822565b91505092915050565b600080604083850312156108df57600080fd5b600083013567ffffffffffffffff8111156108f957600080fd5b61090585828601610822565b925050602083013567ffffffffffffffff81111561092257600080fd5b61092e85828601610822565b9150509250929050565b60008060006060848603121561094d57600080fd5b600084013567ffffffffffffffff81111561096757600080fd5b61097386828701610822565b935050602084013567ffffffffffffffff81111561099057600080fd5b61099c86828701610822565b925050604084013567ffffffffffffffff8111156109b957600080fd5b6109c586828701610822565b9150509250925092565b600080604083850312156109e257600080fd5b600083013567ffffffffffffffff8111156109fc57600080fd5b610a0885828601610822565b9250506020610a1985828601610876565b9150509250929050565b6000610a2f8383610b25565b905092915050565b6000610a4282610da4565b610a4c8185610dd2565b935083602082028501610a5e85610d7f565b8060005b85811015610a9a5784840389528151610a7b8582610a23565b9450610a8683610dc5565b925060208a01995050600181019050610a62565b50829750879550505050505092915050565b610ab581610e10565b82525050565b6000610ac682610dba565b610ad08185610df4565b9350610ae0818560208601610e35565b610ae981610e68565b840191505092915050565b6000610aff82610dba565b610b098185610e05565b9350610b19818560208601610e35565b80840191505092915050565b6000610b3082610daf565b610b3a8185610de3565b9350610b4a818560208601610e35565b610b5381610e68565b840191505092915050565b600081546001811660008114610b7b5760018114610ba057610be4565b607f6002830416610b8c8187610e05565b955060ff1983168652808601935050610be4565b60028204610bae8187610e05565b9550610bb985610d8f565b60005b82811015610bdb57815481890152600182019150602081019050610bbc565b82880195505050505b505092915050565b610bf581610e1c565b82525050565b6000610c078284610af4565b915081905092915050565b6000610c1e8284610b5e565b915081905092915050565b60006020820190508181036000830152610c438184610a37565b905092915050565b6000602082019050610c606000830184610aac565b92915050565b60006020820190508181036000830152610c808184610abb565b905092915050565b60006040820190508181036000830152610ca28185610abb565b90508181036020830152610cb68184610abb565b90509392505050565b60006060820190508181036000830152610cd98186610abb565b90508181036020830152610ced8185610abb565b90508181036040830152610d018184610abb565b9050949350505050565b6000602082019050610d206000830184610bec565b92915050565b6000604051905081810181811067ffffffffffffffff82111715610d4957600080fd5b8060405250919050565b600067ffffffffffffffff821115610d6a57600080fd5b601f19601f8301169050602081019050919050565b6000819050602082019050919050565b60008190508160005260206000209050919050565b600081519050919050565b600081519050919050565b600081519050919050565b6000602082019050919050565b600082825260208201905092915050565b600082825260208201905092915050565b600082825260208201905092915050565b600081905092915050565b60008115159050919050565b6000819050919050565b82818337600083830152505050565b60005b83811015610e53578082015181840152602081019050610e38565b83811115610e62576000848401525b50505050565b6000601f19601f8301169050919050565b610e8281610e1c565b8114610e8d57600080fd5b5056fea365627a7a7231582062dc7ebdef1dc4a1301f102fa0fc912669f562eaea373a798b53494d0d5acbee6c6578706572696d656e74616cf564736f6c63430005100040",
  "source": "pragma solidity >=0.4.22 <0.7.0;\r\npragma experimental ABIEncoderV2;\r\n\r\ncontract EtherlessSmart {\r\n\r\n    string data = \"hello!\";\r\n    uint256 balance = 0;\r\n\r\n    struct jsFunction {\r\n        string name;\r\n        //maybe add function signature!\r\n        uint256 price; //decide unit of measurement (probably wei for ease of use and not having 0.0000...00something ether)\r\n        address payable developer;\r\n        bool exists;\r\n    }\r\n\r\n    mapping (string => jsFunction) private availableFunctions; //check if struct in mapping is set to 0 by default\r\n    string[] functionNames;\r\n\r\n    //events\r\n    //event run\r\n    event runRequest(string funcname, string param, string id);\r\n    //event response\r\n    event response(string _result, string id);\r\n\r\n    // functions to check list (availableFunctions)\r\n        //getList -> returns the full list of available functions\r\n        function getList() public view returns (string[] memory) {\r\n            return functionNames;\r\n        }\r\n\r\n        //existsFunction -> check if function is in the availableFunctions list\r\n        function existsFunction(string memory name) public view returns (bool) {\r\n            if(availableFunctions[name].exists) {\r\n                return true;\r\n            } else {\r\n                return false;\r\n            }\r\n        }\r\n\r\n        //addFunction -> add deployed function to list\r\n        function addFunction(string memory name, uint256 price) public {\r\n            address payable developer = msg.sender;\r\n            availableFunctions[name] = jsFunction(name, price, developer, true);\r\n            functionNames.push(name); //check if length is correct after adding an element\r\n        }\r\n\r\n        //removeFunction -> remove function from availableFunctions list\r\n        function removeFunction(string memory toRemove) public {\r\n            delete availableFunctions[toRemove];\r\n            for (uint index = 0; index < functionNames.length; index++) {\r\n                if(uint(keccak256(abi.encodePacked(functionNames[index]))) == uint(keccak256(abi.encodePacked(toRemove)))){\r\n                    delete functionNames[index]; //check if length is correct after deleting an element\r\n                }\r\n            }\r\n        }\r\n\r\n    // main commands\r\n        //runFunction -> requests execution of the function (call to existsFunction - requests payment - check payment - emit executeFunction event)\r\n        function runFunction(string memory funcName, string memory param, string memory id) public payable {\r\n            data = funcName;\r\n            balance += msg.value;\r\n            emit runRequest(funcName, param, id);\r\n        }\r\n\r\n        function resultFunction(string memory result, string memory id) public {\r\n            emit response(result, id);\r\n        }\r\n        //deployFunction -> deployes the user developed function\r\n        //deleteFunction -> delete one of the caller's owned functions\r\n        //...\r\n\r\n        function getBalance() public view returns (uint256){\r\n            return balance;\r\n        }\r\n\r\n        function getData() public view returns(string memory){\r\n            return data;\r\n        }\r\n}",
  "sourcePath": "C:\\Users\\verof\\OneDrive\\Desktop\\etherless-smart-effect\\contracts\\EtherlessSmart.sol",
  "compiler": {
    "name": "solc",
    "version": "0.5.16+commit.9c3226ce.Emscripten.clang"
  },
  "schemaVersion": "3.1.0",
  "updatedAt": "2020-04-26T18:47:02.306Z",
  "networkType": "ethereum",
  "devdoc": {
    "methods": {}
  },
  "userdoc": {
    "methods": {}
  }
}